:100000000C9451050C9479050C9479050C947905A0
:100010000C9479050C9479050C9479050C94790568
:100020000C9479050C9479050C94A7150C9439144B
:100030000C9479050C9479050C9479050C94790548
:100040000C9479050C9479050C9479050C94790538
:100050000C9479050C9479050C9479050C943D0F5A
:100060000C9479050C9479050C9479050C94790518
:100070000C9479050C9479050C9479050C94790508
:100080000C9479050C9479050C9479050C947905F8
:100090000C9479050C9479050C9479050C947905E8
:1000A0000C9479050C9479050C947905521055102F
:1000B000441048104E1076107610761059105D10CE
:1000C000611067106B1076107110000080C06030F6
:1000D000180C0406020203010101010101030202DE
:1000E0000206040C3870C0800000F01E03000000FF
:1000F000000006090906000000F8F80000000609E3
:1001000009060000000000031EF00F78C000000088
:100110000000008080808080808383808080808059
:1001200080000000000000C0780F00000103060CF2
:10013000183020604142C4848484848484C4424151
:10014000602030180C0603010000000080C0603001
:10015000180C04060202030101010101010302025D
:100160000206040C3870C0800000F01E030000007E
:10017000000006090906000000F8F8000000060962
:1001800009060000000000031EF00F78C000000008
:100190000000000000808080808383808080800059
:1001A00000000000000000C0780F00000103060CF2
:1001B000183020664544C4848484848484C44445BF
:1001C000662030180C06030100000000000000004B
:1001D00000000000000000000000FFFEFCF8F0E05E
:1001E000C0800000000000000000E0E0E0E0E0E08F
:1001F000E0E0E0E0E0E0E0E0E0E0FFFFFFFFFFFF45
:10020000FFFFFFFEFCF8F0E0C080070707070707C5
:1002100007070707070707070707FFFFFFFFFFFF9E
:10022000FFFFFF7F3F1F0F070301000000000000DA
:1002300000000000000000000000FF7F3F1F0F07CC
:1002400003010000000000000000000000000000AA
:10025000000080C0E0F0F8FCFEFF0000000000009D
:100260000000000000000000000080C0E0F0F8FC8A
:10027000FEFFFFFFFFFFFFFFFFFFE0E0E0E0E0E049
:10028000E0E0E0E0E0E0E0E0E0E00103070F1F3F36
:100290007FFFFFFFFFFFFFFFFFFF070707070707BE
:1002A0000707070707070707070700000000000008
:1002B00000000103070F1F3F7FFF00000000000048
:1002C000000000000000000000000000000000002E
:1002D00000000000000000FFFFFFFFFFFF00000024
:1002E000000000000000000000000000000000000E
:1002F00000000000000000FFFFFFFFFFFF00000004
:10030000000000000000000000000103070F1F3F75
:100310007FFFFFFFFFFFFFFFFFFFFFFFFFFFFFFF6D
:10032000FFFFFF7F3F1F0F070301000000000000D9
:1003300000000103070F1F3F7FFFFF7F3F1F0F07D5
:1003400003010000000000000000000000000000A9
:10035000000080C0E0F0F8FCFEFFFFFEFCF8F0E0DB
:10036000C080000000000000000080C0E0F0F8FC49
:10037000FEFFFFFFFFFFFFFFFFFFFFFFFFFFFFFF8E
:10038000FFFFFFFEFCF8F0E0C0800000000000006E
:1003900000000000000000FFFFFFFFFFFF00000063
:1003A000000000000000000000000000000000004D
:1003B00000000000000000FFFFFFFFFFFF00000043
:1003C0000000000000000000000000000000003EEF
:1003D0005B4F5B3E3E6B4F6B3E1C3E7C3E1C183CB5
:1003E0007E3C181C577D571C1C5E7F5E1C00183C11
:1003F0001800FFE7C3E7FF0018241800FFE7DBE75A
:10040000FF30483A060E2629792926407F05050740
:10041000407F05253F5A3CE73C5A7F3E1C1C08089C
:100420001C1C3E7F14227F22145F5F005F5F060961
:100430007F017F006689956A606060606094A2FFBA
:10044000A29408047E040810207E201008082A1CAC
:1004500008081C2A08081E101010100C1E0C1E0C78
:1004600030383E3830060E3E0E0600000000000018
:10047000005F00000007000700147F147F14242A87
:100480007F2A122313086462364956205000080759
:100490000300001C2241000041221C002A1C7F1C7A
:1004A0002A08083E0808008070300008080808087C
:1004B000000060600020100804023E5149453E00E3
:1004C000427F400072494949462141494D33181441
:1004D000127F1027454545393C4A49493141211190
:1004E00009073649494936464949291E0000140082
:1004F00000004034000000081422411414141414A5
:10050000004122140802015909063E415D594E7C02
:100510001211127C7F494949363E414141227F41B7
:1005200041413E7F494949417F090909013E414115
:1005300051737F0808087F00417F41002040413F00
:10054000017F081422417F404040407F021C027F0F
:100550007F0408107F3E4141413E7F090909063E64
:100560004151215E7F091929462649494932030133
:100570007F01033F4040403F1F2040201F3F403845
:10058000403F631408146303047804036159494D20
:1005900043007F4141410204081020004141417F56
:1005A00004020102044040404040000307080020CC
:1005B000545478407F2844443838444444283844CC
:1005C00044287F385454541800087E090218A4A403
:1005D0009C787F0804047800447D40002040403D22
:1005E000007F1028440000417F40007C047804789C
:1005F0007C080404783844444438FC18242418182F
:10060000242418FC7C08040408485454542404048A
:100610003F44243C4040207C1C2040201C3C403077
:10062000403C44281028444C9090907C4464544CA6
:100630004400083641000000770000004136080001
:1006400002010204023C2623263C1EA1A161123AAB
:100650004040207A385454555921555579412154F8
:10066000547841215554784020545579400C1E52FD
:1006700072123955555559395454545939555454A1
:10068000580000457C410002457D420001457C4008
:10069000F0292429F0F0282528F07C545545002025
:1006A00054547C547C0A097F4932494949323248C2
:1006B000484832324A4848303A4141217A3A424029
:1006C0002078009DA0A07D39444444393D404040FD
:1006D0003D3C24FF2424487E4943662B2FFC2F2BCE
:1006E000FF0929F620C0887E09032054547941006F
:1006F00000447D413048484A32384040227A007AEE
:100700000A0A727D0D19317D2629292F28262929CB
:10071000292630484D4020380808080808080808ED
:10072000382F10C8ACBA2F102834FA00007B000014
:1007300008142A142222142A14089500220095AACB
:10074000005500AAAA55AA55AA000000FF001010E3
:1007500010FF00141414FF001010FF00FF1010F021
:1007600010F0141414FC001414F700FF0000FF0034
:10077000FF1414F404FC141417101F10101F101F82
:100780001414141F00101010F0000000001F1010AF
:1007900010101F10101010F010000000FF101010AB
:1007A000101010101010FF10000000FF140000FFC8
:1007B00000FF00001F10170000FC04F414141710B1
:1007C000171414F404F40000FF00F71414141414A4
:1007D0001414F700F7141414171410101F101F141A
:1007E0001414F4141010F010F000001F101F00007B
:1007F000001F14000000FC140000F010F01010FFA7
:1008000010FF141414FF141010101F00000000F04B
:1008100010FFFFFFFFFFF0F0F0F0F0FFFFFF000020
:10082000000000FFFF0F0F0F0F0F38444438447CC7
:100830002A2A3E147E02020606027E027E026355CA
:100840004941633844443C04407E201E2006027E19
:10085000020299A5E7A5991C2A492A1C4C7201722B
:100860004C304A4D4D303048784830BC625A463D95
:100870003E494949007E0101017E2A2A2A2A2A444A
:10088000445F444440514A444040444A514000007F
:10089000FF0103E080FF000008086B6B083612368A
:1008A0002436060F090F060000181800000010106B
:1008B000003040FF0101001F01011E00191D171229
:1008C000003C3C3C3C0000000000F0F89C8E87831C
:1008D000878E9CF8F00000FEFF0303030303070E5E
:1008E000FCF80000FEFF0303030303070EFCF800FF
:1008F00000FFFF00000000000000FFFF0000FEFFFF
:100900008383838383C7EE7C380000F8FC0E0703E3
:100910000303070EFCF800003F7FE0C08080C0E0CA
:100920007F3FFFFF01010101010101FFFF0000FF07
:10093000FF0C0C0C0C1C3E77E3C100007FFFC0C015
:10094000C0C0C0E0703F1F00001F3F70E0C0C0C0CB
:10095000E0703F1F00007FFFC1C1C1C1C1E3773E0E
:100960001C00001F3F70E0C0C0C0E0703F1F0000CF
:1009700000000001FFFF01000000D5F08D14A1C8A8
:1009800081CFD9F1AF200014021302120215020721
:100990000208020A020A010B020B01090209010402
:1009A000010C010601000000000200090F00000315
:1009B0000401000C00000000000000000000000026
:1009C0000000000000040802011040804010204098
:1009D0008040800802040180402010020110801035
:1009E000204040200404040404030405020202021F
:1009F00004030202020206060606060604040202B8
:100A000002040400000000250028002B002E003105
:100A10000000000000240027002A002D00300012F2
:100A2000010002EF02014041233680000101020370
:100A30000112010002000000404123368000010144
:100A400002030141726475696E6F204C4C43004192
:100A5000726475626F790004030904080B000202D6
:100A60000201000904000001020200000524001038
:100A700001052401010104240206052406000107E2
:100A800005810310004009040100020A000000076C
:100A90000502024000000705830240000000020A30
:100AA000671711241FBECFEFDAE0DEBFCDBF12E023
:100AB000A0E0B1E0E4E0F2E302C005900D92AE31B7
:100AC000B107D9F726E0AEE1B2E001C01D92AA3E1F
:100AD000B207E1F71AE0C2EADAE004C02297FE01A9
:100AE0000E946218CE39D107C9F70E94E7100C9412
:100AF00000190C9400008EE192E00E94EC0D62E07F
:100B00008EE192E00E94E60D40E050E064E170E08A
:100B10008EE192E00E94E00D6DE171E08EE192E0E5
:100B20000E9445114FE050E065E270E08EE192E0F6
:100B30000E94E00D65E271E08EE192E00E944511B5
:100B400061E08EE192E00E94E60D66EF71E08EE1D9
:100B500092E00E9438116AE271E08EE192E00E9418
:100B6000451160E471E08EE192E00E94451165E577
:100B700071E08EE192E00E94381182E292E00C94E2
:100B8000400C82E292E00E94980C0E947B0560E09B
:100B900070E0CB010C94471640E050E06BE470E04D
:100BA0008EE192E00E94E00D6CE671E08EE192E051
:100BB0000E94381160910801709109014AE050E0EB
:100BC0008EE192E00E94F01149E050E06BE470E0A9
:100BD0008EE192E00E94E00D64E771E08EE192E028
:100BE0000E94381160910401709105014AE050E0C3
:100BF0008EE192E00E94F01147E350E06BE470E078
:100C00008EE192E00E94E00D6CE771E08EE192E0EF
:100C10000E94381160914302709144024AE050E012
:100C20008EE192E00E94F01182E292E00C94400C7E
:100C3000AF92BF92CF92EF920F93CF93DF93109228
:100C40003A02C0E0D0E0AA24A394B12C8EE192E055
:100C50000E94EC0D60E882E292E00E94AC0C8823D6
:100C600009F442C08091410290914202892BE1F542
:100C7000B0924202A0924102CC24C39460E2E62EDC
:100C800000E22AE433E040E050E06FE070E082E20E
:100C900092E00E94090B0E94CC0564EF71E080E0B5
:100CA00090E00E94AA0FC12C2AE433E040E050E01B
:100CB0006FE070E082E292E00E94090BFE01EE0F0D
:100CC000FF1FEB5BFD4F80819181892B09F093C160
:100CD00021968091430290914402019690934402A0
:100CE000809343020E94CC0560E182E292E00E9480
:100CF000AC0C882309F442C080913F0290914002DD
:100D0000892BE1F5B0924002A0923F02CC24C3941B
:100D100040E2E42E00E22AEC32E040E250E06FE0F4
:100D200070E082E292E00E94090B0E94CC0564EF21
:100D300071E080E090E00E94AA0FC12C2AEC32E022
:100D400040E250E06FE070E082E292E00E94090B26
:100D5000FE01EE0FFF1FEB5BFD4F8081918102973B
:100D600009F049C121968091430290914402019675
:100D700090934402809343020E94CC0560E282E299
:100D800092E00E94AC0C882309F442C080913D029D
:100D900090913E02892BE1F5B0923E02A0923D0275
:100DA000CC24C39420E2E22E00E22AE432E04FE0B9
:100DB00050E060E070E082E292E00E94090B0E9445
:100DC000CC0564EF71E080E090E00E94AA0FC12C96
:100DD0002AE432E04FE050E060E070E082E292E02E
:100DE0000E94090BFE01EE0FFF1FEB5BFD4F8081A0
:100DF0009181039709F0FFC0219680914302909161
:100E00004402019690934402809343020E94CC05D1
:100E100060E482E292E00E94AC0C882309F442C0B4
:100E200080913B0290913C02892BE1F5B0923C020B
:100E3000A0923B02CC24C39480E2E82E00E22AEC8C
:100E400031E04FE050E067E270E082E292E00E9421
:100E5000090B0E94CC0564EF71E080E090E00E94F5
:100E6000AA0FC12C2AEC31E04FE050E067E270E0BD
:100E700082E292E00E94090BFE01EE0FFF1FEB5B86
:100E8000FD4F80819181019709F0B5C02196809135
:100E9000430290914402019690934402809343024E
:100EA0000E94CC0560E882E292E00E94BE0C88239A
:100EB00021F0109242021092410260E182E292E03F
:100EC0000E94BE0C882321F01092400210923F0233
:100ED00060E282E292E00E94BE0C882321F0109230
:100EE0003E0210923D0260E482E292E00E94BE0C5B
:100EF000882321F010923C0210923B02809106015F
:100F000090910701C817D9070CF4A0CE80913A023E
:100F1000CC24C394E0E2EE2E00E2882309F43FC023
:100F20002AE431E040E150E06FE070E082E292E0DC
:100F30000E94090B0E94CC0568EE73E080E090E00F
:100F40000E94AA0FC12C2AE431E040E150E06FE09A
:100F500070E082E292E00E94090B0E94CC0564EFEF
:100F600071E080E090E00E94AA0F809108019091CA
:100F7000090101979093090180930801809106016E
:100F80009091070101979093070180930601DF91EB
:100F9000CF910F91EF90CF90BF90AF9008952AEC32
:100FA00030E040E150E06FE070E082E292E00E94C9
:100FB000090B0E94CC0568EE73E080E090E00E948F
:100FC000AA0FC12C2AEC30E040E150E06FE070E065
:100FD00082E292E00E94090B0E94CC0564EF71E06E
:100FE00080E090E0DF91CF910F91EF90CF90BF9094
:100FF000AF900C94AA0F8091040190910501019784
:10100000909305018093040181E080933A027ECFA2
:101010004F925F926F927F92AF92BF92CF92EF9278
:101020000F93CF93DF9324E6422E512C612C712C29
:10103000809108019091090145970CF027C1A5E422
:10104000AA2EA2E0BA2EC0E0D0E0809108019091D3
:1010500009018C179D070CF4A1C064E070E080E0EA
:1010600090E00E944F16A30192010E944118F501E1
:10107000619371935F0161157105E9F4CC24C39408
:1010800090E2E92E00E22AE433E040E050E06FE035
:1010900070E082E292E00E94090B0E94CC0568EEAB
:1010A00073E080E090E00E94AA0FC12C2AE433E0B4
:1010B00040E050E041C061307105F9F4CC24C394A4
:1010C00080E2E82E00E22AEC31E04FE050E067E2F7
:1010D00070E082E292E00E94090B0E94CC0568EE6B
:1010E00073E080E090E00E94AA0FC12C2AEC31E06E
:1010F0004FE050E067E270E043C062307105F9F400
:10110000CC24C39400E2E02E00E22AEC32E040E27C
:1011100050E06FE070E082E292E00E94090B0E94D2
:10112000CC0568EE73E080E090E00E94AA0FC12C2D
:101130002AEC32E040E250E06FE070E021C0633022
:10114000710551F5CC24C394B0E2EB2E00E22AE401
:1011500032E04FE050E060E070E082E292E00E9416
:10116000090B0E94CC0568EE73E080E090E00E94DD
:10117000AA0FC12C2AE432E04FE050E060E070E0BA
:1011800082E292E00E94090B0E94CC0564EF71E0BC
:1011900080E090E00E94AA0F219657CFC3E0D0E0F4
:1011A0008EE192E00E94EC0D49E150E069E170E0CF
:1011B0008EE192E00E94E00D64E871E08EE192E041
:1011C0000E94381143E250E062E370E08EE192E069
:1011D0000E94E00D4AE050E0BE018EE192E00E94E4
:1011E000F0110E94CC0564EF71E080E090E00E9475
:1011F000AA0F2197A9F68EE192E00E94EC0D62E021
:101200008EE192E00E94E60D49E150E068E270E074
:101210008EE192E00E94E00D6FE871E08EE192E0D5
:101220000E94381182E292E00E94400C64EF71E06B
:1012300080E090E00E94AA0F8EE192E00E94EC0D07
:1012400061E08EE192E00E94E60D0E94CC050E94D2
:101250001806809108019091090101969093090167
:101260008093080180910601909107010196909367
:1012700007018093060180910401909105011816E1
:1012800019060CF4D5CE0E94A209D2CEDF91CF91DF
:101290000F91EF90CF90BF90AF907F906F905F9045
:1012A0004F900C94A2096CE082E292E00E94AC0C98
:1012B000882309F446C081E090E09093090180936F
:1012C000080182E090E0909307018093060110925C
:1012D00044021092430283E090E0909305018093D2
:1012E00004018EE192E00E94EC0D49E150E06EE1D4
:1012F00070E08EE192E00E94E00D6CE671E08EE11C
:1013000092E00E94381160910801709109014AE051
:1013100050E08EE192E00E94F01182E292E00E94A1
:10132000400C68EE73E080E090E00E94AA0F8EE12E
:1013300092E00E94EC0D82E292E00E94400C0C943C
:101340000808089580910401909105011816190666
:101350003CF18EE192E00E94EC0D40E050E060E054
:1013600070E08EE192E00E94E00D64E971E08EE1B0
:1013700092E00E9445116EE971E08EE192E00E94D8
:10138000451167EA71E08EE192E00E94381182E235
:1013900092E00E94400C68EB7BE080E090E02DC082
:1013A0008EE192E00E94EC0D40E050E060E070E0E1
:1013B0008EE192E00E94E00D6CEB71E08EE192E034
:1013C0000E94451166EC71E08EE192E00E944511A9
:1013D00068ED71E08EE192E00E94451182E292E0B8
:1013E0000E94400C6CE082E292E00E94AC0C811101
:1013F00007C064E670E080E090E00E94AA0FF2CFA0
:101400000C9453098EE192E00C94CF0CCF93CFB79C
:10141000F89480917102811127C0E5EFF9E0849181
:10142000E6EDF9E09491E82FF0E0EE0FFF1FEF5E9C
:10143000F54FA591B4918C91892321F461E081E16C
:101440000E94B01061E081E10E9477108CB580614C
:101450008CBD8CB580648CBD61E08FE00E947710FC
:1014600061E080E10E947710809171028F5F80932C
:101470007102CFBFCF910895CF93DF93EC010E940B
:10148000140E19821A8280E18D831C821B821A86B7
:101490001B861C861D861E86DF91CF9108950E94B3
:1014A000220F80788038B9F485EA0E94F90E40E076
:1014B00060E080E00E94090F0E94220F84FD03C0BB
:1014C0000E94C90EF9CF41E061E081E00E94090F5E
:1014D00084EA0C94F90E0895FF920F931F93CF9313
:1014E000DF931F92CDB7DEB7F42E122F69830E94CF
:1014F000220F6981082F0623061328C061E089E0C6
:101500000E94B01068EC70E080E090E00E94AA0FAA
:1015100060E08F2D0E94B01082E090E00E94E218FF
:10152000181729F0612F82E090E00E94EA1864EF1A
:1015300071E080E090E00E94AA0F61E08F2D0E9490
:10154000B0100E94220F80238017D9F30F90DF91F3
:10155000CF911F910F91FF900895CF93DF93EC01EE
:101560000E94220F82FF17C060E089E00E94B01045
:101570002FEF4BE064E8CE010E946C0A20E04AE0C5
:1015800064E1CE010E946C0A68EC70E080E090E0BB
:101590000E94AA0FE5CF61E089E0DF91CF910C9422
:1015A000B0106038710518F54034510500F5E42F8E
:1015B000E695E695E695F0E047705527F695FE2FFF
:1015C000EE27F795E795E60FF71FEE58FD4F81E000
:1015D00090E0042E01C0880F0A94EAF7222319F044
:1015E0009081982B03C080959081982390830895D3
:1015F00082E792E0B62FB111BFEFFC010024B19356
:10160000B193B193B1930394D1F7089560E00C9432
:10161000F80A2F923F924F925F926F927F928F9231
:101620009F92AF92BF92CF92DF92EF92FF920F9371
:101630001F93CF93DF9300D000D01F92CDB7DEB7BA
:10164000C982202E312CCB01820D931D97FD00C144
:10165000603871050CF0FCC0CA018E0D911D97FD1C
:10166000F7C0403451050CF0F3C0CA0157FF04C065
:1016700088279927841B950B87709927FA0157FDB6
:101680003796DF01F3E0B595A795FA95E1F7BB83AF
:10169000AA8357FF09C01197BB83AA8348E050E093
:1016A000FA01E81BF90BCF014E2D4695469546955C
:1016B000C42ED12C4E2D477019F0FFEFCF1ADF0A40
:1016C00049012A813B813695322F2227379527956C
:1016D0002E583D4F3D832C834A815B81E8E06E2E7E
:1016E000712C681A790A9A01AA81BB812A1B3B0BCB
:1016F0002C153D050CF0ACC04830510509F4A8C0CC
:101700004F3F3FEF53070CF494C09B0100E010E003
:10171000AC81BD81A058BF4F2D01021513050CF0FF
:1017200088C02038310509F484C037FD7DC04F3FA3
:10173000BFEF5B0709F488C0D801A80DB91DEC8084
:10174000FD80E20EF31EE981E13061F4FD01A49118
:10175000082E01C0AA0F0A94EAF7F701B080AB295E
:10176000A08321C0F981F11112C0FD01A491EA2FDB
:10177000F0E0082E02C0EE0FFF1F0A94E2F7E0959A
:10178000F095D701AC90B12CEA21FB210BC0FD01F3
:10179000A491EA2F082E01C0EE0F0A94EAF7D701B0
:1017A000BC90EB25EC93009709F43EC047305105FF
:1017B00009F43AC0F801E80DF91DB981B13079F4A6
:1017C000E491F0E0062C02C0F595E7950A94E2F763
:1017D0007201E20EF31ED701BC90EB2924C0B9813F
:1017E000B11113C0E491F0E0062C02C0F595E79525
:1017F0000A94E2F7E095F0957201E20EF31ED7012C
:10180000AC90B12CEA21FB210EC0E491F0E0062C53
:1018100002C0F595E7950A94E2F77201E20EF31E15
:10182000D701BC90EB25EC930F5F1F4F2F5F3F4F0D
:1018300074CF4F5F5F4F820C931C2C813D812058E9
:101840003F4F3D832C834FCF009709F0B3CFECCFB0
:101850000F900F900F900F900F90DF91CF911F91ED
:101860000F91FF90EF90DF90CF90BF90AF909F903F
:101870008F907F906F905F904F903F902F90089542
:1018800060E082E792E00C94D40EAF92BF92CF92C8
:10189000EF920F931F93CF93DF935C0160E08AE098
:1018A0000E94B010CEEEDFEF1C2FCC3F19F441E0C8
:1018B00060E004C0C83129F440E061E081E00E94AA
:1018C000090FC5010E94060BCC24C394E0E1EE2E63
:1018D00008E52AEC38E0AE0164E170E0C5010E9441
:1018E000090BC5010E94400C6BE170E080E090E0C4
:1018F0000E94AA0F103F31F46AEF70E080E090E0A0
:101900000E94AA0F2196C931D10571F66EEE72E0E0
:1019100080E090E00E94AA0F61E089E0DF91CF9122
:101920001F910F91EF90CF90BF90AF900C94B0109B
:10193000CF93DF93EC010E94470E0E94ED0ECE0183
:101940000E944F0ACE010E94AD0ACE010E94450CB2
:10195000DF91CF910C94050ECF93DF931F92CDB7FB
:10196000DEB769830E94220F6981982F962381E058
:10197000961380E00F90DF91CF910895CF93DF937E
:101980001F92CDB7DEB769830E94220F6981682359
:1019900081E009F080E00F90DF91CF910895CF931F
:1019A000DF93EC018AE092E0998388831B821A829C
:1019B000CE0104960E943C0A81EF91E099838883CE
:1019C0001D8A1C8A1F8A1E8A81E0888F198E8A8F41
:1019D0001B8EDF91CF9108952F923F924F925F928D
:1019E0006F927F928F929F92AF92BF92CF92DF922F
:1019F000EF92FF920F931F93CF93DF93CDB7DEB794
:101A000028970FB6F894DEBF0FBECDBF2A0160380D
:101A100071050CF071C0403451050CF06DC0AB0184
:101A2000A5E0CA9E400D511D1124141615060CF098
:101A300063C0EC2DF0E0FC83EB83A201F8E0CF9EC5
:101A4000400D511D1124141615060CF055C0A5E0CB
:101A50002A9FA00111245B0118861F8246535C4F08
:101A60005A834983FC013496FE83ED83FF81F53070
:101A700041F0E981FA812F813885E20FF31F14913B
:101A800001C010E03201F8E0DF2E10FF02C0F02E9E
:101A900001C0FE2CF1100BC0E01209C01695DA94BB
:101AA0004B815C81640E751ED110EFCF19C01501FA
:101AB000822D8A198C1590F74301882D86198C1573
:101AC00058F42F2DA401B1018D819E810E94D10A6D
:101AD0005FEF851A950AF1CF8FEF281A380AE8CF01
:101AE000AF81B8851196B887AF83EB81FC81AE0ECC
:101AF000BF1E169709F0BACF28960FB6F894DEBF2E
:101B00000FBECDBFDF91CF911F910F91FF90EF904E
:101B1000DF90CF90BF90AF909F908F907F906F900D
:101B20005F904F903F902F900895CF92EF920F9338
:101B3000CF93DF93EC01262F6A3069F42A8D8E89CA
:101B40009F8938E0239F800D911D11249F8B8E8BE0
:101B50001D8A1C8A2DC06D3059F14E895F896C89B0
:101B60007D89CA8CE98C088D0E94EC0C2A8D422F4D
:101B700050E08C899D8936E0239F800D911D1124B2
:101B80009D8B8C8B2B8D222399F06AEF640390013F
:101B9000659F300D112420583F4F2817390744F412
:101BA000E881F9810190F081E02D6AE0CE0109958C
:101BB00081E090E0DF91CF910F91EF90CF90089569
:101BC000FC01758B648B578B468B0895611101C0A6
:101BD00061E0FC01628F0895CF93DF93EC010496DE
:101BE0000E94060B1F8A1E8A1D8A1C8ADF91CF91D4
:101BF000089561E085E00E94771061E08DE00E9429
:101C0000771081E080937206089582E090E00E9450
:101C1000E21881110C94F90D08958EBD00000DB4E9
:101C200007FEFDCF8EB508950895E0917506F091F9
:101C30007606808190917306892B8083E0917706E8
:101C4000F091780690818091740680958923808335
:101C50000895E0917706F09178068081909174065E
:101C6000892B8083E0917506F091760690818091B2
:101C70007306809589238083E0917706F09178063A
:101C80009081809174068095892380830895CF93F5
:101C9000DF930E94060AC7E8D9E0BE01FE018491E5
:101CA00022966F5F7F4FFB016491882319F00E9499
:101CB0007710F3CF61E086E00E94B01061E070E041
:101CC00080E090E00E94AA0F60E086E00E94B010E1
:101CD0006AE070E080E090E00E94AA0F61E086E098
:101CE0000E94B010E0EFF9E0E491F0E0EE0FFF1F8A
:101CF000ED5FF54F859194919093780680937706E8
:101D0000E1EDF9E0E491E0937406E8EEF9E0E491A6
:101D1000F0E0EE0FFF1FED5FF54F859194919093EA
:101D2000760680937506E9ECF9E0E491E09373069A
:101D30008CB58C7F8CBD8DB581608DBD0E94290EC8
:101D4000CAE7D9E0FE0184910E940D0E2196F9E0C8
:101D5000C738DF07B9F70E94150E809164008160D3
:101D6000809364008091640082608093640080911D
:101D70006400806880936400809164008064809334
:101D8000640080916500816080936500DF91CF9150
:101D9000089583B7817F83BF83B7816083BF8895B0
:101DA00083B78E7F83BF0895FC0180818EBD611152
:101DB0001082319682E090E02081611110820DB492
:101DC00007FEFDCF2EBD01963196813024E09207AB
:101DD00099F70DB407FEFDCF0895CF93DF93C0E0D0
:101DE000D4E080E00E940D0E2197D9F7DF91CF91CA
:101DF0000895CF93DF931F92CDB7DEB789830E94FA
:101E0000290E89810E940D0E0F90DF91CF910C94C5
:101E1000150E1F93CF93DF931F92CDB7DEB7162F0A
:101E2000682F8AE049830E94B010612F8BE00E94E6
:101E3000B0104981642F89E00F90DF91CF911F91FD
:101E40000C94B0108FB14CB123B150E04095509537
:101E50004074552733E0559547953A95E1F730E0C2
:101E60002095309520713327359527953595279501
:101E7000242B8095807F822B08951F920F920FB69E
:101E80000F9211242F933F938F939F93AF93BF9300
:101E900080917A0690917B06A0917C06B0917D0698
:101EA0003091790623E0230F2D3720F40196A11DF0
:101EB000B11D05C026E8230F0296A11DB11D209378
:101EC000790680937A0690937B06A0937C06B09364
:101ED0007D0680917E0690917F06A0918006B0914C
:101EE00081060196A11DB11D80937E0690937F0609
:101EF000A0938006B0938106BF91AF919F918F917F
:101F00003F912F910F900FBE0F901F9018953FB7E4
:101F1000F89480917E0690917F06A0918006B09102
:101F2000810626B5A89B05C02F3F19F00196A11D7B
:101F3000B11D3FBF6627782F892F9A2F620F711D21
:101F4000811D911D42E0660F771F881F991F4A95DA
:101F5000D1F708958F929F92AF92BF92CF92DF9266
:101F6000EF92FF926B017C010E94870F4B015C0195
:101F7000C114D104E104F104F1F00E9473160E942F
:101F8000870F681979098A099B09683E73408105A2
:101F9000910570F321E0C21AD108E108F10888EE3A
:101FA000880E83E0981EA11CB11CC114D104E10469
:101FB000F10429F7DDCFFF90EF90DF90CF90BF9035
:101FC000AF909F908F900895789484B5826084BD7F
:101FD00084B5816084BD85B5826085BD85B581602D
:101FE00085BDEEE6F0E0808181608083E1E8F0E08D
:101FF0001082808182608083808181608083E0E8BC
:10200000F0E0808181608083E1E9F0E0808182609E
:102010008083808181608083E0E9F0E0808181605D
:102020008083E1ECF0E08081846080838081826045
:102030008083808181608083E3ECF0E08081816037
:102040008083E0ECF0E0808182608083E2ECF0E06D
:10205000808181608083EAE7F0E080818460808312
:1020600080818260808380818160808380818068BC
:102070008083089590E0FC013197EF30F105B0F5D1
:10208000EA5AFF4F0C946018809180008F7703C04C
:10209000809180008F7D80938000089580918000E2
:1020A000877FF9CF84B58F7702C084B58F7D84BDDB
:1020B0000895809190008F7707C0809190008F7D68
:1020C00003C080919000877F809390000895809155
:1020D000C0008F7703C08091C0008F7D8093C000C7
:1020E00008958091C200877F8093C2000895CF93A6
:1020F000DF9390E0FC01EB53F64F2491FC01EC518F
:10210000F64F8491882349F190E0880F991FFC01D4
:10211000EF5EF54FA591B4918D5F954FFC01C59190
:10212000D4919FB7611108C0F8948C9120958223B7
:102130008C93888182230AC0623051F4F8948C9188
:10214000322F309583238C938881822B888304C01F
:10215000F8948C91822B8C939FBFDF91CF9108953F
:102160000F931F93CF93DF931F92CDB7DEB7282F26
:1021700030E0F901EA55F64F8491F901EB53F64F3F
:102180001491F901EC51F64F04910023C9F0882312
:1021900021F069830E943A106981E02FF0E0EE0F90
:1021A000FF1FED5FF54FA591B4919FB7F8948C9107
:1021B000611103C01095812301C0812B8C939FBFB7
:1021C0000F90DF91CF911F910F91089508950E9474
:1021D000E40F0E94E61082E896E00E942A160E9410
:1021E000C105C0E0D0E00E9453092097E1F30E94AE
:1021F0000000F9CFCF92DF92EF92FF920F931F93DF
:10220000CF93DF937C016A01EB0100E010E00C1535
:102210001D0571F06991D701ED91FC910190F0815C
:10222000E02DC7010995892B19F00F5F1F4FEFCFE4
:10223000C801DF91CF911F910F91FF90EF90DF9038
:10224000CF9008956115710581F0DB010D9000209C
:10225000E9F7AD0141505109461B570BDC01ED91E7
:10226000FC910280F381E02D099480E090E00895D4
:102270000C942211DC01ED91FC910190F081E02D94
:10228000099465EF71E00C9422110F931F93CF9383
:10229000DF93EC010E9422118C01CE010E944111BA
:1022A000800F911FDF91CF911F910F9108958F9211
:1022B0009F92AF92BF92DF92EF92FF920F931F9384
:1022C000CF93DF93CDB7DEB7A1970FB6F894DEBFFB
:1022D0000FBECDBF7C01F42FD52ECB0119A2223029
:1022E00008F42AE08E010F5D1F4F822E912CA12C45
:1022F000B12C6F2F7D2DA50194010E941F18F22F84
:10230000D32ECA01015011096A3014F4E0E301C070
:10231000E7E3E60FD801EC93232B242B252B49F779
:10232000B801C7010E942211A1960FB6F894DEBF32
:102330000FBECDBFDF91CF911F910F91FF90EF9016
:10234000DF90BF90AF909F908F900895CF92DF92D3
:10235000EF92FF920F931F93CF93DF93EC016A01EB
:102360007B012115310579F4E881F9810190F08133
:10237000E02D642FDF91CF911F910F91FF90EF908F
:10238000DF90CF9009942A303105E9F477FF1AC025
:102390006DE20E943A118C0144275527BA014C196D
:1023A0005D096E097F092AE0CE010E945711800F56
:1023B000911FDF91CF911F910F91FF90EF90DF90D0
:1023C000CF9008952AE0B701A601CE01DF91CF9109
:1023D0001F910F91FF90EF90DF90CF900C945711C9
:1023E0009A01AB01662757FD6095762F0C94A611D4
:1023F000615030F02091F100FC0120830196F8CF6C
:10240000289884E680938B06089540918606509123
:102410008706209184063091850642175307B4F44D
:102420009091E8009570E1F39091E80092FD19C059
:102430008093F100809186069091870601968F73B4
:102440009927892B19F48EEF8093E80080918606F6
:10245000909187060196909387068093860681E087
:10246000089580E00895CF92DF92EF92FF920F934C
:102470001F93CF93DF931F92CDB7DEB7082F162F90
:10248000F42E862F880F8E5F99830E94051283E0B9
:102490000E940512E02EC02E9981D92E8C2D8E1906
:1024A000811798F4F601F7FE02C0849101C0808183
:1024B0000E940512082F80E00E9405128023FFEF82
:1024C000CF1ADF0A8111EACF01C081E00F90DF91BE
:1024D000CF911F910F91FF90EF90DF90CF900895D3
:1024E0008091D70081608093D70080EA8093D800E4
:1024F00089B5806189BD89B5826089BD09B400FE56
:10250000FDCF61E070E080E090E00E94AA0F809132
:10251000D8008F7C80618093D8008091E000807F1C
:102520008093E0000895CF93DF931F92CDB7DEB77D
:102530001982CE0101960E94D3160E940B18BE018B
:102540006F5F7F4F0E94841789810F90DF91CF9139
:1025500008952FB7FC012083F89467706093E90019
:102560000895CF93DF931F92CDB7DEB7682FCE01CA
:1025700001960E94A9128091F20099819FBF0F904D
:10258000DF91CF910895FF920F931F93CF93DF9325
:1025900000D0CDB7DEB7F62E8A0190918A06992336
:1025A00011F057FF03C08FEF9FEF2BC0682FCE01B4
:1025B00001967A830E94A9128091F20090E0A8010E
:1025C0007A81801791070CF4AC01EF2DF72FF40EF0
:1025D00084E6FE1639F0289880938B069091F100DE
:1025E0009193F7CF4115510521F08091F200882396
:1025F00021F089818FBFCA0104C08BE68093E80077
:10260000F8CF0F900F90DF91CF911F910F91FF9016
:102610000895CF93DF931F92CDB7DEB741E050E02E
:10262000BE016F5F7F4F0E94C312019719F4898129
:1026300090E002C08FEF9FEF0F90DF91CF91089550
:10264000CF93DF931F92CDB7DEB7682FCE010196EF
:102650000E94A9129091E800892F807295FF04C012
:102660009091F20080E4891B99819FBF0F90DF91C8
:10267000CF9108956F927F928F929F92AF92BF9267
:10268000CF92DF92EF92FF920F931F93CF93DF933E
:102690001F92CDB7DEB7782E7B01C42EB52E809168
:1026A0008A06882369F0042F152F8AEFD82E872DEC
:1026B0008072982E9AE3A92E872D8074882E11C0DF
:1026C0008FEF9FEF57C0872D0E942013682E811136
:1026D0000CC0DA94A9F361E070E080E090E00E9421
:1026E000AA0F0115110579F73BC0282F30E002171A
:1026F00013070CF4602E672DCE0101960E94A912DB
:102700008091E80085FF29C0262D30E0021B130BC5
:10271000992039F06A948FEF6816B1F01092F100A9
:10272000F9CFF701862D77FE07C0815058F09491BC
:102730009093F1003196F9CF815020F091919093D0
:10274000F100FACFE20EF31E8091E80085FF0FC082
:102750000115110511F481100AC089818FBFC1CF05
:102760005D9884E680938C068C2D9B2D03C0A092EF
:10277000E800F3CF0F90DF91CF911F910F91FF9061
:10278000EF90DF90CF90BF90AF909F908F907F9011
:102790006F9008951092E9001092870610928606B5
:1027A00090938506809384060895CF92DF92FF92DE
:1027B0000F931F93CF93DF9300D0CDB7DEB7F82EE2
:1027C0008A016B0101151105B1F0F601F7FE02C097
:1027D000849101C0808149835A830E94051201506F
:1027E0001109FFEFCF1ADF0A49815A818111EACF1F
:1027F0008FEF9FEF01C0CA010F900F90DF91CF9133
:102800001F910F91FF90DF90CF900895BF92CF92CC
:10281000DF92EF92FF920F931F93CF93DF936C01A0
:102820008B01EB013BEFB32E2097C1F07E01C13449
:10283000D1051CF020E4E22EF12C8091E80082FF0B
:10284000FCCFC8018C1B9D0B6E2D8C0D9D1D0E9415
:10285000F811B092E800CE19DF09E6CFC801DF9188
:10286000CF911F910F91FF90EF90DF90CF90BF908D
:1028700008951F920F920FB60F921124DF92EF92DC
:10288000FF920F931F932F933F934F935F936F93F9
:102890007F938F939F93AF93BF93EF93FF93CF93C8
:1028A000DF93CDB7DEB76C97DEBFCDBF1092E900E6
:1028B0008091E80083FF23C168E0CE0145960E9425
:1028C000F81182EF8093E8003D8937FF05C08091C1
:1028D000E80080FFFCCF03C08EEF8093E800832FD9
:1028E000807609F0F0C02E894F89D88C21110CC058
:1028F000303829F4809189068093F10002C010924B
:10290000F1001092F100F4C0842F90E09D29213055
:1029100049F43111EDC0019709F0EAC080918906B0
:102920008D7F0AC0233059F43111E2C0019709F0BC
:10293000DFC080918906826080938906D9C02530E6
:1029400041F48091E80080FFFCCF40684093E300B1
:10295000CFC0263009F08DC0EB8CFC8C22E0D21267
:102960002CC080E090E00E94CA130E94931299E06C
:102970008E010F5F1F4FF801292F11922A95E9F759
:102980009983DA8291E09E8390EA98879AEF9987FB
:102990002091860630918706275F3F4F3C832B832B
:1029A0008D83C7010E94CA1349E050E0B80180E05E
:1029B0000E94D5130E9493129BC0C7010E94CA13A4
:1029C0000E940B18BE016B5E7F4F0E94AD170097EF
:1029D00019F00CF08DC090C081E0D8120EC08B8D24
:1029E0009C8D089719F481E080938306809183067B
:1029F00081112FC061E37AE031C0E3E0DE127CC0D8
:102A00008F89882349F1823029F440E867E08FE418
:102A10009AE01CC0813029F440E86BE083E49AE03E
:102A200015C0833009F068C00E940B188E010F5F3B
:102A30001F4FB8010E94CC17F80101900020E9F760
:102A40003197E01BF10B40E06E2FC8010E9433125A
:102A50004DC06FE17AE002C067E57AE0611571056B
:102A600009F44AC0FB01449150E080E80E94D5136C
:102A70003FC0273009F440C0283021F481E0809322
:102A8000F10036C02930A1F53370B1F5EBE0F1E08B
:102A900081E021E036E39081992361F08093E900A1
:102AA0002093EB0091919093EC003093ED008F5FB9
:102AB000873089F78EE78093EA001092EA008F89C9
:102AC00080938A0615C08B8D9C8D0E94CA13898DB8
:102AD000811105C0CE0145960E94DE1607C00E94F6
:102AE0000B18BE016B5E7F4F0E94EB17882321F00D
:102AF0008EEF8093E80003C081E28093EB006C9638
:102B00000FB6F894DEBF0FBECDBFDF91CF91FF911E
:102B1000EF91BF91AF919F918F917F916F915F9155
:102B20004F913F912F911F910F91FF90EF90DF9068
:102B30000F900FBE0F901F9018958093E900809121
:102B4000F200882319F08AE38093E80008951F9229
:102B50000F920FB60F9211242F933F934F935F93D1
:102B60006F937F938F939F93AF93BF93CF93EF9385
:102B7000FF93C091E1008091E100837F8093E100A9
:102B80008093E100C3FF0FC01092E90081E08093C1
:102B9000EB001092EC0082E38093ED0010928A0625
:102BA00088E08093F000C2FF19C083E00E949D1569
:102BB00080918C06882339F080918C068150809317
:102BC0008C06882389F180918B06882339F08091C7
:102BD0008B06815080938B06882341F1C4FF10C07F
:102BE0008091E2008E7E81608093E2008091E1001E
:102BF0008F7E8093E100809188068E7E806111C077
:102C0000C0FF16C08091E2008E7E80618093E2005A
:102C10008091E1008E7E8093E100809188068E7E17
:102C200081608093880604C05D9ACDCF289AD6CF64
:102C3000FF91EF91CF91BF91AF919F918F917F9134
:102C40006F915F914F913F912F910F900FBE0F9019
:102C50001F90189510928A06109289061092880685
:102C60000E9470128091E1008E7E8093E1008DE0E1
:102C70008093E200559A209AEEEFFFE785919491B8
:102C80008B3F9C4D19F481E08093DD06089561151A
:102C900071058105910511F00C94D4180895CF9316
:102CA000DF9300D000D0CDB7DEB79B01AC0161153A
:102CB00071058105910569F069833A834B835C83D3
:102CC0000E94CF1829813A814B815C810E94411872
:102CD00003C060E070E0CB010F900F900F900F9059
:102CE000DF91CF91089508950E94DD18CF93DF936F
:102CF0001F92CDB7DEB76983DC01ED91FC910280B4
:102D0000F381E02D41E050E0BE016F5F7F4F0995F8
:102D10000F90DF91CF910895CF93DF93EC018C85D5
:102D20009D8597FF05C082E00E9409139D878C87CF
:102D30008C859D85DF91CF91089583E00C949D153E
:102D4000FC018485958597FD06C082E00E94B11242
:102D500090E00196089582E00E94B11290E00895FB
:102D6000FC018485958597FD05C02FEF3FEF3587E2
:102D70002487089582E00C940913CF93DF93EC012C
:102D800080911C01882331F083E00E943A131816C9
:102D9000190634F081E090E09B838A8380E090E024
:102DA000DF91CF910895FC0120812E5F208342E4C2
:102DB00050E06BE57AE080E80C94D513FC012181AA
:102DC0008081813A59F4213209F04BC047E050E04C
:102DD00065E171E080E00E94D5135EC0813209F0A8
:102DE00040C0233289F4838190E0982F8827328174
:102DF000832BA0E0B0E08093110190931201A09387
:102E00001301B09314010FC0203239F467E070E071
:102E100085E191E00E94061409C0223221F48281EA
:102E200080931C0103C02D7F2032B1F58091DD0617
:102E3000811103C0E0E0F8E002C0EEEFFAE080911B
:102E4000150190911601A0911701B0911801803BD6
:102E50009440A105B10511F580911C0180FF03C0CC
:102E60001DC080E00895EE3F2AE0F20731F0808136
:102E700091819093FF0A8093FE0A87E797E79183F9
:102E800080832BE088E190E00FB6F894A8958093BA
:102E900060000FBE2093600081E0089588E10FB6C6
:102EA000F89480936000109260000FBEA895EE3FEA
:102EB0008AE0F80739F08091FE0A9091FF0A918329
:102EC0008083EACF1092FF0A1092FE0AE5CF10929B
:102ED000900610928F0688EE93E0A0E0B0E0809319
:102EE000910690939206A0939306B093940682E184
:102EF00092E090938E0680938D068FEF9FEF9093D4
:102F00009A06809399060895EF92FF920F931F936C
:102F1000CF93DF937B01FC01C281D38100E010E0FD
:102F2000209781F0E881F9810280F381E02DB701DB
:102F3000CE01099597FD08C0080F191F0884D9858F
:102F4000C02DEECFC80102C08FEF9FEFDF91CF9170
:102F50001F910F91FF90EF9008950F931F93CF93C0
:102F6000DF938B01FC01C281D381209771F0E8814E
:102F7000F9810480F581E02DB801CE010995009713
:102F800031F40884D985C02DF0CF80E090E0DF9146
:102F9000CF911F910F9108950F931F93CF93DF93BC
:102FA0008B01FC01C281D381209771F0E881F98106
:102FB0000680F781E02DB801CE010995080F111D9B
:102FC0000884D985C02DF0CFF8011082DF91CF9110
:102FD0001F910F9108950F931F93CF93DF938B0150
:102FE000FC01C281D381209771F0E881F9810190C1
:102FF000F081E02DB801CE010995811106C0088449
:10300000D985C02DF0CF80E001C081E0DF91CF9164
:103010001F910F9108958091E20681110DC082E009
:103020008093DE0684E08093DF061092E106109222
:10303000E00681E08093E2068EED96E00895A1E23D
:103040001A2EAA1BBB1BFD010DC0AA1FBB1FEE1F22
:10305000FF1FA217B307E407F50720F0A21BB30B6D
:10306000E40BF50B661F771F881F991F1A9469F7E9
:1030700060957095809590959B01AC01BD01CF0145
:103080000895052E97FB1EF400940E94581857FDD2
:1030900007D00E941F1807FC03D04EF40C94581858
:1030A00050954095309521953F4F4F4F5F4F089574
:1030B00090958095709561957F4F8F4F9F4F0895A4
:1030C000EE0FFF1F0590F491E02D09940E947118F6
:1030D000A59F900DB49F900DA49F800D911D11246C
:1030E0000895A29FB001B39FC001A39F700D811DE1
:1030F0001124911DB29F700D811D1124911D089501
:103100008F929F92AF92BF92CF92DF92EF92FF92F7
:10311000CF93DF93EC01688179818A819B8161156E
:1031200071058105910521F464E279ED8BE597E065
:103130002DE133EF41E050E00E94411849015A016E
:103140009B01AC01A7EAB1E40E9466186B017C0107
:10315000ACEEB4EFA50194010E94FB18C60ED71E79
:10316000E81EF91EF7FE06C081E0C81AD108E10882
:1031700080E8F80AC882D982EA82FB82C701B601D8
:103180009F77DF91CF91FF90EF90DF90CF90BF902E
:10319000AF909F908F9008950E948018089580E0CE
:1031A00091E00E94801808956093000170930101DE
:1031B0008093020190930301089581E090E0F894D8
:1031C0000C940019F999FECF92BD81BDF89A992708
:1031D00080B50895262FF999FECF1FBA92BD81BD03
:1031E00020BD0FB6F894FA9AF99A0FBE0196089589
:1031F000B7FF0C9466180E946618821B930B089503
:04320000F894FFCF70
:103204000100000003000200010000C180810000F1
:1032140000FFFFFFFF00E1000000000000417264B6
:1032240075626F790053617973005368616C6C2027
:10323400576520506C617920412047616D653F00DE
:10324400507265737320412026204220746F2042FF
:103254006567696E0028632920526F646E65792062
:103264004E6F72746F6E203230313700526F756E4C
:10327400643A20004C697665733A200053636F7298
:10328400653A2000476574205265616479210047DE
:103294004F20210047616D65204F76657200596F9C
:1032A40075204C6F73650050726573732041202B39
:1032B400204220746F20426567696E0057656C6C0C
:1032C40020446F6E6500596F7520626561742074C7
:1032D40068652067616D65005072657373204120D5
:1032E40026204220746F20626567696E000000002A
:1032F40000950DFA100D0A006E616E00696E66008D
:103304006F7666002E00000000007416FA100000AC
:0E33140000007616BD16A016B0168C169D167B
:00000001FF
