:100000000C94C3050C94EB050C94EB050C94EB05D8
:100010000C94EB050C94EB050C94EB050C94EB05A0
:100020000C94EB050C94EB050C94AC180C943E1757
:100030000C94EB050C94EB050C94EB050C94EB0580
:100040000C94EB050C94FA0F0C94EB050C94EB0557
:100050000C94EB050C94EB050C94EB050C94AB1194
:100060000C94EB050C94EB050C94EB050C94EB0550
:100070000C94EB050C94EB050C94EB050C94EB0540
:100080000C946D100C94EB050C94EB050C94EB05A3
:100090000C94EB050C94EB050C94EB050C94EB0520
:1000A0000C94EB050C94EB050C94EB05CE12D312DB
:1000B000D812E212EC12361336133613F61200136E
:1000C0000A13141321133613291357135A13491300
:1000D0004D1353137B137B137B135E136213661351
:1000E0006C1370137B137613000080C06030180C03
:1000F00004060202030101010101010302020206DA
:10010000040C3870C0800000F01E030000000000E6
:1001100006090906000000F8F800000006090906B3
:100120000000000000031EF00F78C0000000000077
:1001300000808080808080838380808080808000B9
:100140000000000000C0780F00000103060C18300A
:1001500020604142C4848484848484C442416020F9
:1001600030180C0603010000000080C06030180C3D
:100170000406020203010101010101030202020659
:10018000040C3870C0800000F01E03000000000066
:1001900006090906000000F8F80000000609090633
:1001A0000000000000031EF00F78C00000000000F7
:1001B0000000008080808083838080808000000039
:1001C0000000000000C0780F00000103060C18308A
:1001D00020664544C4848484848484C44445662061
:1001E00030180C06030100000000000000000000B1
:1001F0000000000000000000FFFEFCF8F0E0C080FE
:100200000000000000000000E0E0E0E0E0E0E0E0EE
:10021000E0E0E0E0E0E0E0E0FFFFFFFFFFFFFFFFE6
:10022000FFFEFCF8F0E0C080070707070707070795
:100230000707070707070707FFFFFFFFFFFFFFFF8E
:10024000FF7F3F1F0F0703010000000000000000B8
:100250000000000000000000FF7F3F1F0F070301A8
:10026000000000000000000000000000000000008E
:1002700080C0E0F0F8FCFEFF00000000000000007D
:10028000000000000000000080C0E0F0F8FCFEFF6D
:10029000FFFFFFFFFFFFFFFFE0E0E0E0E0E0E0E066
:1002A000E0E0E0E0E0E0E0E00103070F1F3F7FFF58
:1002B000FFFFFFFFFFFFFFFF07070707070707070E
:1002C00007070707070707070000000000000000F6
:1002D0000103070F1F3F7FFF000000000000000028
:1002E000000000000000000000000000000000000E
:1002F0000000000000FFFFFFFFFFFF000000000004
:1003000000000000000000000000000000000000ED
:100310000000000000FFFFFFFFFFFF0000000000E3
:1003200000000000000000000103070F1F3F7FFFD7
:10033000FFFFFFFFFFFFFFFFFFFFFFFFFFFFFFFFCD
:10034000FF7F3F1F0F0703010000000000000000B7
:100350000103070F1F3F7FFFFF7F3F1F0F070301B1
:10036000000000000000000000000000000000008D
:1003700080C0E0F0F8FCFEFFFFFEFCF8F0E0C0807B
:10038000000000000000000080C0E0F0F8FCFEFF6C
:10039000FFFFFFFFFFFFFFFFFFFFFFFFFFFFFFFF6D
:1003A000FFFEFCF8F0E0C08000000000000000004C
:1003B0000000000000FFFFFFFFFFFF000000000043
:1003C000000000000000000000000000000000002D
:1003D0000000000000FFFFFFFFFFFF000000000023
:1003E0000000000000000000F0F89C8E8783878EDC
:1003F0009CF8F00000FEFF0303030303070EFCF864
:100400000000FEFF0303030303070EFCF80000FFD8
:10041000FF00000000000000FFFF0000FEFF8383DC
:10042000838383C7EE7C380000F8FC0E07030303C8
:10043000070EFCF800003F7FE0C08080C0E07F3FF7
:10044000FFFF01010101010101FFFF0000FFFF0C9F
:100450000C0C0C1C3E77E3C100007FFFC0C0C0C085
:10046000C0E0703F1F00001F3F70E0C0C0C0E070E0
:100470003F1F00007FFFC1C1C1C1C1E3773E1C0027
:10048000001F3F70E0C0C0C0E0703F1F00000000D0
:100490000001FFFF0100000000000000003E5B4F74
:1004A0005B3E3E6B4F6B3E1C3E7C3E1C183C7E3CD4
:1004B000181C577D571C1C5E7F5E1C00183C1800E2
:1004C000FFE7C3E7FF0018241800FFE7DBE7FF3072
:1004D000483A060E2629792926407F050507407FE0
:1004E00005253F5A3CE73C5A7F3E1C1C08081C1C53
:1004F0003E7F14227F22145F5F005F5F06097F0149
:100500007F006689956A606060606094A2FFA29433
:1005100008047E040810207E201008082A1C080801
:100520001C2A08081E101010100C1E0C1E0C30384F
:100530003E3830060E3E0E06000000000000005F50
:1005400000000007000700147F147F14242A7F2A6C
:10055000122313086462364956205000080703002E
:10056000001C2241000041221C002A1C7F1C2A087A
:10057000083E0808008070300008080808080000DD
:1005800060600020100804023E5149453E00427F51
:10059000400072494949462141494D331814127FA0
:1005A0001027454545393C4A494931412111090740
:1005B0003649494936464949291E000014000000C1
:1005C0004034000000081422411414141414004193
:1005D00022140802015909063E415D594E7C121150
:1005E000127C7F494949363E414141227F41414188
:1005F0003E7F494949417F090909013E4141517303
:100600007F0808087F00417F41002040413F017F73
:10061000081422417F404040407F021C027F7F043B
:1006200008107F3E4141413E7F090909063E415184
:10063000215E7F09192946264949493203017F0174
:10064000033F4040403F1F2040201F3F4038403F75
:10065000631408146303047804036159494D43008B
:100660007F4141410204081020004141417F0402C2
:100670000102044040404040000307080020545459
:1006800078407F2844443838444444283844442837
:100690007F385454541800087E090218A4A49C788A
:1006A0007F0804047800447D40002040403D007FE6
:1006B0001028440000417F40007C047804787C08C6
:1006C0000404783844444438FC182424181824249A
:1006D00018FC7C08040408485454542404043F447F
:1006E000243C4040207C1C2040201C3C4030403CAE
:1006F00044281028444C9090907C4464544C44000E
:100700000836410000007700000041360800020171
:100710000204023C2623263C1EA1A161123A40405D
:10072000207A3854545559215555794121545478DB
:1007300041215554784020545579400C1E52721274
:1007400039555555593954545459395554545800FC
:1007500000457C410002457D420001457C40F02976
:100760002429F0F0282528F07C54554500205454C5
:100770007C547C0A097F4932494949323248484809
:1007800032324A4848303A4141217A3A4240207850
:10079000009DA0A07D39444444393D4040403D3C4B
:1007A00024FF2424487E4943662B2FFC2F2BFF096E
:1007B00029F620C0887E0903205454794100004462
:1007C0007D413048484A32384040227A007A0A0A4D
:1007D000727D0D19317D2629292F282629292926C0
:1007E00030484D4020380808080808080808382F05
:1007F00010C8ACBA2F102834FA00007B000008148F
:100800002A142222142A14089500220095AA0055C1
:1008100000AAAA55AA55AA000000FF00101010FF58
:1008200000141414FF001010FF00FF1010F010F05F
:10083000141414FC001414F700FF0000FF00FF1450
:1008400014F404FC141417101F10101F101F14149C
:10085000141F00101010F0000000001F10101010E6
:100860001F10101010F010000000FF1010101010DA
:1008700010101010FF10000000FF140000FF00FF18
:1008800000001F10170000FC04F4141417101714B4
:1008900014F404F40000FF00F714141414141414D6
:1008A000F700F7141414171410101F101F14141449
:1008B000F4141010F010F000001F101F0000001FB3
:1008C00014000000FC140000F010F01010FF10FFE6
:1008D000141414FF141010101F00000000F010FF7B
:1008E000FFFFFFFFF0F0F0F0F0FFFFFF000000005F
:1008F00000FFFF0F0F0F0F0F38444438447C2A2AA3
:100900003E147E02020606027E027E0263554941C3
:10091000633844443C04407E201E2006027E0202CE
:1009200099A5E7A5991C2A492A1C4C7201724C30E2
:100930004A4D4D303048784830BC625A463D3E49B9
:100940004949007E0101017E2A2A2A2A2A44445F5D
:10095000444440514A444040444A51400000FF0151
:1009600003E080FF000008086B6B0836123624365F
:10097000060F090F060000181800000010100030C4
:1009800040FF0101001F01011E00191D1712003C4C
:100990003C3C3C0000000000060115012601370127
:1009A0004A015D01720188019F01B801D201EE0187
:1009B0000B022A024B026E029302BA02E4021003F7
:1009C0003F037003A403DC03170455049704DD04FC
:1009D00027057505C80520067D06E0064907B80706
:1009E0002D08A9082D09B9094D0AEA0A900B400CF7
:1009F000FA0CC00D910E6F0F5A1053115B12721347
:100A00009A14D41520178018F519801B231DDE1E9B
:100A1000B420A622B524E4263429A72B402E003189
:100A2000EA330037453ABC3D68414C456B49C84DF7
:100A300068524F57805C0062101112131516171878
:100A40001A1C1D1F21232527292C2E3134373A3E0D
:100A50004145494E52575C62686E757B838B939C0F
:100A6000A5AFB9C4D0DCE9F70301D5F08D14A1C856
:100A700081CFD9F1AF200014021302120215020730
:100A800002080204010C0106010000000002000936
:100A90000F0000030401000C000000000000000033
:100AA0000000000000000000000408020110408067
:100AB0004010204080408008020401804020100245
:100AC00001108010204040200404040404030405A5
:100AD00002020202040302020202060606060606DB
:100AE0000404020202040400000000250028002B78
:100AF000002E00310000000000240027002A002DF5
:100B000000300012010002EF020140412336800054
:100B100001010203011201000200000040412336DE
:100B20008000010102030141726475696E6F204CFF
:100B30004C430041726475626F7900040309040834
:100B40000B00020202010009040000010202000081
:100B500005240010010524010101042402060524D6
:100B60000600010705810310004009040100020A84
:100B70000000000705020240000007058302400054
:100B80000000740A6C1A11241FBECFEFDAE0DEBF3A
:100B9000CDBF12E0A0E0B1E0E2EFF7E302C00590C4
:100BA0000D92A831B107D9F726E0A8E1B2E001C063
:100BB0001D92AC3FB207E1F71BE0C6E8DBE004C0E2
:100BC0002297FE010E94671BC238D107C9F70E9415
:100BD000EC130C94F71B0C94000088E192E00E9447
:100BE0000C0B62E088E192E00E94F50D40E050E0DD
:100BF00064E170E088E192E00E94EC0D6DE171E04B
:100C000088E192E00E944A144FE050E065E270E013
:100C100088E192E00E94EC0D65E271E088E192E0EB
:100C20000E944A1461E088E192E00E94F50D60EFB5
:100C300071E088E192E00E943D146AE271E088E18F
:100C400092E00E944A146FE371E088E192E00E9412
:100C50004A1464E571E088E192E00E943D1488E165
:100C600092E00C94FD0D88E192E00E94AD0C0E9490
:100C7000ED0560E070E0CB010C944C1940E050E0D1
:100C80006BE470E088E192E00E94EC0D66E671E0B2
:100C900088E192E00E943D14609108017091090181
:100CA0004AE050E088E192E00E94F51449E050E00B
:100CB0006BE470E088E192E00E94EC0D6EE671E07A
:100CC00088E192E00E943D14609104017091050159
:100CD0004AE050E088E192E00E94F51447E350E0DA
:100CE0006BE470E088E192E00E94EC0D66E771E051
:100CF00088E192E00E943D1460913B0670913C06B1
:100D00004AE050E088E192E00E94F51488E192E028
:100D10000C94FD0DAF92BF92CF92EF920F93CF93B1
:100D2000DF9310923206C0E0D0E0AA24A394B12C45
:100D300088E192E00E940C0B60E888E192E00E945A
:100D4000000E882309F442C08091390690913A063A
:100D5000892BE1F5B0923A06A0923906CC24C394CF
:100D600060E2E62E00E228E633E040E050E06FE08B
:100D700070E088E192E00E940F0B0E943E0664EF53
:100D800071E080E090E00E941812C12C28E633E068
:100D900040E050E06FE070E088E192E00E940F0BCD
:100DA000FE01EE0FFF1FE35CF94F80819181892BDB
:100DB00009F093C1219680913B0690913C060196E3
:100DC00090933C0680933B060E943E0660E188E1DA
:100DD00092E00E94000E882309F442C080913706F9
:100DE00090913806892BE1F5B0923806A09237062B
:100DF000CC24C39440E2E42E00E228EE32E040E24C
:100E000050E06FE070E088E192E00E940F0B0E94DA
:100E10003E0664EF71E080E090E00E941812C12C61
:100E200028EE32E040E250E06FE070E088E192E0CE
:100E30000E940F0BFE01EE0FFF1FE35CF94F808154
:100E40009181029709F049C1219680913B069091CA
:100E50003C06019690933C0680933B060E943E061A
:100E600060E288E192E00E94000E882309F442C00B
:100E70008091350690913606892BE1F5B0923606C1
:100E8000A0923506CC24C39420E2E22E00E228E6AC
:100E900032E04FE050E060E070E088E192E00E94D4
:100EA0000F0B0E943E0664EF71E080E090E00E942C
:100EB0001812C12C28E632E04FE050E060E070E00C
:100EC00088E192E00E940F0BFE01EE0FFF1FE35C32
:100ED000F94F80819181039709F0FFC0219680919D
:100EE0003B0690913C06019690933C0680933B060E
:100EF0000E943E0660E488E192E00E94000E882392
:100F000009F442C08091330690913406892BE1F5B3
:100F1000B0923406A0923306CC24C39480E2E82E2B
:100F200000E228EE31E04FE050E067E270E088E157
:100F300092E00E940F0B0E943E0664EF71E080E099
:100F400090E00E941812C12C28EE31E04FE050E0F2
:100F500067E270E088E192E00E940F0BFE01EE0F65
:100F6000FF1FE35CF94F80819181019709F0B5C0C3
:100F7000219680913B0690913C06019690933C0609
:100F800080933B060E943E0660E888E192E00E9462
:100F9000120E882321F010923A061092390660E171
:100FA00088E192E00E94120E882321F01092380608
:100FB0001092370660E288E192E00E94120E8823C8
:100FC00021F0109236061092350660E488E192E036
:100FD0000E94120E882321F01092340610923306DC
:100FE0008091060190910701C817D9070CF4A0CE93
:100FF00080913206CC24C394E0E2EE2E00E28823F6
:1010000009F43FC028E631E040E150E06FE070E0D5
:1010100088E192E00E940F0B0E943E0668EE73E0AA
:1010200080E090E00E941812C12C28E631E040E1F7
:1010300050E06FE070E088E192E00E940F0B0E94A8
:101040003E0664EF71E080E090E00E94181280910B
:10105000080190910901019790930901809308017B
:101060008091060190910701019790930701809369
:101070000601DF91CF910F91EF90CF90BF90AF908D
:10108000089528EE30E040E150E06FE070E088E144
:1010900092E00E940F0B0E943E0668EE73E080E033
:1010A00090E00E941812C12C28EE30E040E150E0A0
:1010B0006FE070E088E192E00E940F0B0E943E0614
:1010C00064EF71E080E090E0DF91CF910F91EF90BD
:1010D000CF90BF90AF900C94181280910401909122
:1010E00005010197909305018093040181E08093AD
:1010F00032067ECF4F925F926F927F92AF92BF92F5
:10110000CF92EF920F93CF93DF9324E6422E512C90
:10111000612C712C809108019091090145970CF088
:1011200027C1ADE3AA2EA6E0BA2EC0E0D0E08091A0
:101130000801909109018C179D070CF4A1C064E08F
:1011400070E080E090E00E945419A30192010E9497
:10115000461BF501619371935F0161157105E9F417
:10116000CC24C39490E2E92E00E228E633E040E08C
:1011700050E06FE070E088E192E00E940F0B0E9467
:101180003E0668EE73E080E090E00E941812C12CE9
:1011900028E633E040E050E041C061307105F9F4E9
:1011A000CC24C39480E2E82E00E228EE31E04FE048
:1011B00050E067E270E088E192E00E940F0B0E942D
:1011C0003E0668EE73E080E090E00E941812C12CA9
:1011D00028EE31E04FE050E067E270E043C062305B
:1011E0007105F9F4CC24C39400E2E02E00E228EE6D
:1011F00032E040E250E06FE070E088E192E00E946F
:101200000F0B0E943E0668EE73E080E090E00E94C3
:101210001812C12C28EE32E040E250E06FE070E09E
:1012200021C06330710551F5CC24C394B0E2EB2E9C
:1012300000E228E632E04FE050E060E070E088E154
:1012400092E00E940F0B0E943E0668EE73E080E081
:1012500090E00E941812C12C28E632E04FE050E0E6
:1012600060E070E088E192E00E940F0B0E943E0671
:1012700064EF71E080E090E00E941812219657CF51
:10128000C3E0D0E088E192E00E940C0B49E150E01D
:1012900069E170E088E192E00E94EC0D6EE771E098
:1012A00088E192E00E943D1443E250E062E370E086
:1012B00088E192E00E94EC0D4AE050E0BE0188E136
:1012C00092E00E94F5140E943E0664EF71E080E017
:1012D00090E00E9418122197A9F688E192E00E94FE
:1012E0000C0B62E088E192E00E94F50D49E150E0CC
:1012F00068E270E088E192E00E94EC0D69E871E03C
:1013000088E192E00E943D1488E192E00E94FD0D88
:1013100064EF71E080E090E00E94181288E192E0B2
:101320000E940C0B61E088E192E00E94F50D0E94A2
:101330003E060E948A06809108019091090101965B
:101340009093090180930801809106019091070113
:10135000019690930701809306018091040190917A
:101360000501181619060CF4D5CE0E94140AD2CE27
:10137000DF91CF910F91EF90CF90BF90AF907F9082
:101380006F905F904F900C94140A6CE088E192E0AB
:101390000E94000E882309F446C081E090E09093FB
:1013A00009018093080182E090E090930701809307
:1013B000060110923C0610923B0683E090E0909369
:1013C00005018093040188E192E00E940C0B49E141
:1013D00050E06EE170E088E192E00E94EC0D66E67C
:1013E00071E088E192E00E943D14609108017091E3
:1013F00009014AE050E088E192E00E94F51488E19A
:1014000092E00E94FD0D68EE73E080E090E00E94A3
:10141000181288E192E00E940C0B88E192E00E9491
:10142000FD0D0C947A0808958091040190910501B6
:10143000181619063CF188E192E00E940C0B40E07E
:1014400050E060E070E088E192E00E94EC0D6EE810
:1014500071E088E192E00E944A1468E971E088E155
:1014600092E00E944A1461EA71E088E192E00E94F1
:101470003D1488E192E00E94FD0D68EB7BE080E086
:1014800090E02DC088E192E00E940C0B40E050E01B
:1014900060E070E088E192E00E94EC0D66EB71E0A4
:1014A00088E192E00E944A1460EC71E088E192E0E9
:1014B0000E944A1462ED71E088E192E00E944A14B1
:1014C00088E192E00E94FD0D6CE088E192E00E94CC
:1014D000000E811107C064E670E080E090E00E9499
:1014E0001812F2CF0C94C50988E192E00C94AE0A70
:1014F000CF93CFB7F89480916906811127C0E9EDA9
:10150000FAE08491EAEBFAE09491E82FF0E0EE0F34
:10151000FF1FEB50F54FA591B4918C91892321F4D5
:1015200061E081E10E94B51361E081E10E947C13DA
:101530008CB580618CBD8CB580648CBD61E08FE022
:101540000E947C1361E080E10E947C138091690617
:101550008F5F80936906CFBFCF910895CF93DF93BC
:10156000EC0184E092E0998388831B821A82CE0189
:101570000E9498108BEE91E0998388838CE38E8390
:1015800080E1898718861F821E861F86188A198A1D
:101590001A8AFE01EC5EFB4F118210823296118294
:1015A0001082C85EDB4F81E08883DF91CF91089580
:1015B0006038710518F54034510500F5E42FE695C3
:1015C000E695E695F0E047705527F695FE2FEE2755
:1015D000F795E795E60FF71FE80FF91F81E090E018
:1015E000042E01C0880F0A94EAF7222319F0948987
:1015F000982B03C0809594899823948B08954496E2
:10160000B62FB111BFEFFC010024B193B193B19398
:10161000B1930394D1F7089560E00C94FF0A2F92E0
:101620003F924F925F926F927F928F929F92AF9272
:10163000BF92CF92DF92EF92FF920F931F93CF93BF
:10164000DF9300D000D01F92CDB7DEB7C982202E25
:10165000312CFB01E20DF31DF7FD13C1603871055C
:101660000CF00FC1FA01EE0DF11DF7FD0AC1403477
:1016700051050CF006C1DA0157FF04C0AA27BB27A9
:10168000A41BB50BFD01E770FF27FB83EA83FA017A
:1016900057FD3796DF0113E0B595A7951A95E1F749
:1016A000BD83AC8357FF0CC01197BD83AC8348E06A
:1016B00050E0DA01EA81FB81AE1BBF0BBB83AA833A
:1016C0004E2D469546954695C42ED12C4E2D4770ED
:1016D00019F0FFEFCF1ADF0A49014C815D81569561
:1016E000542F442757954795480F591F2C813D810A
:1016F000F8E06F2E712C8A819B81681A790AC901E2
:10170000AC81BD818A1B9B0B8C159D050CF0B9C06B
:101710002830310509F4B5C02F3F9FEF39070CF48D
:10172000A3C0CB0100E010E0DA01A058BF4F2D01AB
:10173000021513050CF098C08038910509F494C087
:1017400097FD8EC02F3FBFEF3B0709F494C0D8012F
:10175000A80DB91D7A01E80EF91EE981E13071F496
:10176000FD01A491B0E00A8002C0AA0FBB1F0A9439
:10177000E2F7F701B488AB29A48B28C0F981F111F5
:1017800014C0FD01A491EA2FF0E00A8002C0EE0F20
:10179000FF1F0A94E2F7E095F095D7015496AC90BC
:1017A0005497B12CEA21FB210FC0FD01A491EA2F2F
:1017B000F0E00A8002C0EE0FFF1F0A94E2F7D701A3
:1017C0005496BC905497EB255496EC93AA81BB8118
:1017D000AB2B09F445C02730310509F441C0F801AD
:1017E000E80DF91DB981B13089F4E491F0E0062CDF
:1017F00002C0F595E7950A94E2F77201E80EF91E2A
:10180000D7015496BC905497EB2928C0B981B111E7
:1018100015C0E491F0E0062C02C0F595E7950A9416
:10182000E2F7E095F0957201E80EF91ED7015496A3
:10183000AC905497B12CEA21FB2110C0E491F0E068
:10184000062C02C0F595E7950A94E2F77201E80EBE
:10185000F91ED7015496BC905497EB255496EC93FF
:101860000F5F1F4F019664CF2F5F3F4F820C931C79
:1018700040585F4F44CFAA81BB81AB2B09F0AFCF5B
:10188000EFCF0F900F900F900F900F90DF91CF91AF
:101890001F910F91FF90EF90DF90CF90BF90AF908E
:1018A0009F908F907F906F905F904F903F902F9080
:1018B00008958F929F92AF92BF92CF92EF920F9323
:1018C0001F93CF93DF935C01CEEEDFEF18E14C0165
:1018D00084E1880E911C20E040E0612F6C1BC50163
:1018E0000E946A11C5010E940C0BCC24C39400E134
:1018F000E02E08E528EE33E0AE0164E170E0C501BA
:101900000E940F0BC4010E944E116BE170E080E059
:1019100090E00E941812C03F31F46AEF70E080E05E
:1019200090E00E9418122196C931D105A1F66EEE01
:1019300072E080E090E00E94181220E040E060E059
:10194000C501DF91CF911F910F91EF90CF90BF9084
:10195000AF909F908F900C946A11CF93DF93EC011E
:101960000E94CB100E9490118078803849F40E9428
:101970005E112FEF4FEF6FEFCE010E946A11FFCF84
:10198000CE010E94590C249665E0CE010E94DB0E28
:101990006DE0CE010E94DB0EDF91CF910C94310EF1
:1019A0002F923F924F925F926F927F928F929F926F
:1019B000AF92BF92CF92DF92EF92FF920F931F935D
:1019C000CF93DF93CDB7DEB728970FB6F894DEBF7D
:1019D0000FBECDBF9E838D832A01603871050CF048
:1019E0006DC0403451050CF069C0CB01A5E0CA9E22
:1019F000800D911D1124181619060CF05FC0EC2DF6
:101A0000F0E0FC83EB83CA01F8E0CF9E800D911DCE
:101A10001124181619060CF051C0A5E02A9FC00128
:101A200011245B0118861F8288569B4F9A838983F5
:101A3000BF81B53041F0E981FA818F819885E80F47
:101A4000F91F149101C010E0320128E0D22E10FFDE
:101A500002C0F02E01C0FE2CF1100BC0E01209C034
:101A60001695DA94AB81BC816A0E7B1ED110EFCF44
:101A700019C01501822D8A198C1590F74301882D04
:101A800086198C1558F42F2DA401B1018D819E81EA
:101A90000E94D80ABFEF8B1A9B0AF1CFEFEF2E1AE4
:101AA0003E0AE8CF8F819885019698878F83AB8116
:101AB000BC81AA0EBB1E069709F0BACF28960FB6B6
:101AC000F894DEBF0FBECDBFDF91CF911F910F9174
:101AD000FF90EF90DF90CF90BF90AF909F908F904E
:101AE0007F906F905F904F903F902F9008958F92CE
:101AF0009F92AF92BF92CF92EF920F93CF93DF93CB
:101B0000EC01262F6A3099F4FC01E85EFB4F20813E
:101B100032978081918138E0239F800D911D11249F
:101B200091838083CC5EDB4F198218824BC06D306D
:101B300009F448C0FC01EA5EFB4F408151815C0121
:101B40008CEEA81A8BEFB80AF501608171814E0105
:101B5000F8EE8F1AFBEF9F0AF401C080E12C01E040
:101B6000CE010E94D00CF4012081422F50E0F501FB
:101B700080819181F6E02F9F800D911D1124F50148
:101B800091838083359620812223E1F06AEF6403FC
:101B90009001659F300D112420583F4F28173907B9
:101BA0008CF4E881F9810190F081E02D6AE0CE01AA
:101BB000DF91CF910F91EF90CF90BF90AF909F901A
:101BC0008F900994DF91CF910F91EF90CF90BF90BC
:101BD000AF909F908F900895FC01EC5EFB4F718356
:101BE00060833296518340830895611101C061E0A2
:101BF000FC01E85EFB4F6083089544960C944E11FF
:101C0000CF93DF931F92CDB7DEB769830E94901107
:101C10006981982F962381E0961380E00F90DF91E1
:101C2000CF910895CF93DF931F92CDB7DEB769832D
:101C30000E9490116981682381E009F080E00F9093
:101C4000DF91CF910895E4E6F0E08081877F808383
:101C5000E5E6F0E08081877F808381E080936A06FB
:101C600008951092770682E090E00E94E71B8111B0
:101C70000C94230E0895CF92DF92EF92FF921F9360
:101C8000CF93DF9390917806891708F065C067FDC0
:101C900063C0E82FF0E0E859F54F1491E62FF0E02B
:101CA000603330F4E85CF54FE491CE2FD0E006C00D
:101CB000EE0FFF1FE85CF64FC591D4916E01E12C49
:101CC000F12C60E074E284EF90E0A70196010E949D
:101CD000461B21503109410951092115310581E087
:101CE0004807510570F060E970ED83E090E0A701CE
:101CF00096010E94461B215031094109510993E088
:101D000001C091E01130C9F0133031F5809191009C
:101D1000887F892B809391003093990020939800BD
:101D2000D0937606C093750681E080937406809107
:101D300071008260809371000FC080918100887F64
:101D4000892B8093810030938900209388008091B3
:101D50006F00826080936F00DF91CF911F91FF90A1
:101D6000EF90DF90CF900895E82FF0E0E859F54F1D
:101D7000E491E13019F0E33069F0089580916F004B
:101D80008D7F80936F0020918206E0918306F09111
:101D9000840608C01092740620917B06E0917C06B0
:101DA000F0917D06808190E030E02095309582238F
:101DB000932380830895CF93DF93C62F8091780675
:101DC000823009F46BC0E82FF0E0E859F54FD49168
:101DD000A82FB0E0A758B94F6C938F5F8093780617
:101DE00061E08C2F0E947C13D13091F1D33009F047
:101DF00055C01092900010929100809191008860DF
:101E000080939100809191008160809391006C2F6C
:101E100070E0FB01E853F54F249130E0220F331FAF
:101E20002951354FF9018591949190937D068093C6
:101E30007C06FB01E755F54F649160937B066CE3EC
:101E400080E00E943B0E80E0DF91CF910C94B40EB5
:101E500010928000109281008091810088608093B0
:101E60008100809181008160809381006C2F70E0FF
:101E7000FB01E853F54F249130E0220F331F295125
:101E8000354FF90185919491909384068093830650
:101E9000FB01E755F54F649160938206DF91CF9186
:101EA0000895E0916B06F0916C06BF016F5F7F4F64
:101EB00070936C0660936B06A4919A2F907F8A2F83
:101EC0008F70903819F40E94B40EEBCF903961F402
:101ED000AF014E5F5F4F50936C0640936B06FB0162
:101EE00064910E943B0EDDCF903E49F480916D06D7
:101EF00090916E0690936C0680936B06D2CF903FC4
:101F000019F410927706089597FDCBCFAF014E5F7D
:101F10005F4F50936C0640936B06FB016491262F34
:101F200030E03A2BA0917506B09176060E946B1BAB
:101F30006C507E4F8F4F9F4F28EE33E040E050E0D3
:101F40000E94241B20936F06309370064093710605
:101F50005093720680916F0690917006A091710661
:101F6000B0917206892B8A2B8B2B61F481E090E073
:101F7000A0E0B0E080936F0690937006A093710686
:101F8000B0937206089580917406882349F0909169
:101F90007B06E0917C06F0917D0680818927808315
:101FA00080917706882329F180916F0690917006C1
:101FB000A0917106B0917206892B8A2B8B2BC9F0E8
:101FC00080916F0690917006A0917106B091720693
:101FD0000197A109B10980936F0690937006A093B1
:101FE0007106B0937206892B8A2B8B2B11F40C94FB
:101FF000510F08951F920F920FB60F9211242F9335
:102000003F938F939F93AF93BF93EF93FF938091F1
:102010007306882309F44BC080917E0690917F0659
:10202000A0918006B0918106892B8A2B8B2B51F1D0
:1020300090918206E0918306F09184068081892741
:10204000808380917E0690917F06A0918006B0915A
:102050008106181619061A061B0694F580917E064D
:1020600090917F06A0918006B09181060197A10909
:10207000B10980937E0690937F06A0938006B0936B
:1020800081061EC01092730680916F008D7F809331
:102090006F0020918206E0918306F0918406808192
:1020A00090E030E0209530958223932308C09091F2
:1020B0008206E0918306F0918406808189278083DF
:1020C000FF91EF91BF91AF919F918F913F912F9190
:1020D0000F900FBE0F901F9018951F920F920FB682
:1020E0000F9211242F933F934F935F936F937F939E
:1020F0008F939F93AF93BF93EF93FF930E94C30F70
:10210000FF91EF91BF91AF919F918F917F916F91CF
:102110005F914F913F912F910F900FBE0F901F90A5
:1021200018958EBD00000DB407FEFDCF8EB5089545
:102130000895E0918706F091880680819091850648
:10214000892B8083E0918906F0918A0690818091A5
:1021500086068095892380830895E0918906F09111
:102160008A06808190918606892B8083E09187067C
:10217000F0918806908180918506809589238083DF
:10218000E0918906F0918A0690818091860680957B
:10219000892380830895CF93DF930E94780AC7E74D
:1021A000DAE0BE01FE01849122966F5F7F4FFB0152
:1021B0006491882319F00E947C13F3CF61E086E0DC
:1021C0000E94B51361E070E080E090E00E94181278
:1021D00060E086E00E94B5136AE070E080E090E085
:1021E0000E94181261E086E00E94B513E4EDFAE067
:1021F000E491F0E0EE0FFF1FE951F54F85919491C6
:1022000090938A0680938906E5EBFAE0E491E093E7
:102210008606ECECFAE0E491F0E0EE0FFF1FE951E6
:10222000F54F859194919093880680938706EDEA07
:10223000FAE0E491E09385068CB58C7F8CBD8DB57A
:1022400081608DBD0E94AD10CAE6DAE0FAE0C737C2
:10225000DF0731F0FE0184910E9491102196F6CFA4
:102260000E94991080916400816080936400809145
:102270006400826080936400809164008068809331
:1022800064008091640080648093640080916500A4
:10229000816080936500DF91CF91089520E030E068
:1022A000FC014191CF014EBD119C119C119C2F5FEF
:1022B0003F4F2115F4E03F0799F70895CF93DF933F
:1022C000C0E0D4E080E00E9491102197D9F7DF911F
:1022D000CF9108950F931F93CF93DF9300D0CDB785
:1022E000DEB70FEF10E0C801861B9109BC018AE040
:1022F0002A8349830E94A8124981B801641B71098D
:102300008BE00E94A8122A81B801621B710989E042
:102310000F900F90DF91CF911F910F910C94A81205
:102320008FB14CB123B150E0409550954074552782
:1023300033E0559547953A95E1F730E02095309593
:10234000207133273595279535952795242B809532
:10235000807F822B08951F920F920FB60F92112447
:102360002F933F938F939F93AF93BF9380918C064E
:1023700090918D06A0918E06B0918F0630918B06BC
:1023800023E0230F2D3720F40196A11DB11D05C0B8
:1023900026E8230F0296A11DB11D20938B06809382
:1023A0008C0690938D06A0938E06B0938F06809135
:1023B000900690919106A0919206B0919306019695
:1023C000A11DB11D8093900690939106A093920653
:1023D000B0939306BF91AF919F918F913F912F91B1
:1023E0000F900FBE0F901F9018953FB7F8948091F3
:1023F000900690919106A0919206B091930626B511
:10240000A89B05C02F3F19F00196A11DB11D3FBF2C
:102410006627782F892F9A2F620F711D811D911DBC
:1024200042E0660F771F881F991F4A95D1F70895DC
:102430008F929F92AF92BF92CF92DF92EF92FF92D4
:102440006B017C010E94F5114B015C01C114D104A8
:10245000E104F104F1F00E9478190E94F511681965
:1024600079098A099B09683E73408105910570F3DB
:1024700021E0C21AD108E108F10888EE880E83E055
:10248000981EA11CB11CC114D104E104F10429F768
:10249000DDCFFF90EF90DF90CF90BF90AF909F90F7
:1024A0008F900895789484B5826084BD84B58160EE
:1024B00084BD85B5826085BD85B5816085BDEEE64C
:1024C000F0E0808181608083E1E8F0E0108280812B
:1024D00082608083808181608083E0E8F0E0808199
:1024E00081608083E1E9F0E0808182608083808187
:1024F00081608083E0E9F0E0808181608083E1ECAD
:10250000F0E080818460808380818260808380812C
:1025100081608083E3ECF0E0808181608083E0EC87
:10252000F0E0808182608083E2ECF0E08081816075
:102530008083EAE7F0E0808184608083808182602C
:10254000808380818160808380818068808308951A
:102550001F93CF93DF93182FEB0161E00E947C1350
:10256000209711F460E004C0CF3FD10539F461E059
:10257000812FDF91CF911F910C94B513E12FF0E0E3
:10258000E657F54F449150E0FA013197EF30F105ED
:1025900008F06CC0EA5AFF4F0C94651B84B5806844
:1025A00084BDC7BD68C084B5806284BDC8BD63C03A
:1025B00080918000806880938000D0938900C093D0
:1025C000880059C080918000806280938000D09301
:1025D0008B00C0938A004FC08091800088608093F8
:1025E0008000D0938D00C0938C0045C080919000F6
:1025F000806880939000D0939900C09398003BC06E
:1026000080919000806280939000D0939B00C09353
:102610009A0031C080919000886080939000D093A0
:102620009D00C0939C0027C08091C000806880936B
:10263000C0008091C0008F7B8093C000C093CF000A
:102640001AC08091C00080628093C000C093D00007
:1026500012C08091C20088608093C2008091C20045
:102660008B7F8093C200C093D20005C0C038D105D3
:102670000CF07DCF77CFDF91CF911F91089590E03F
:10268000FC013197EF30F105B0F5EB59FF4F0C9499
:10269000651B809180008F7703C0809180008F7DC3
:1026A00080938000089580918000877FF9CF84B562
:1026B0008F7702C084B58F7D84BD0895809190008E
:1026C0008F7707C0809190008F7D03C0809190002C
:1026D000877F8093900008958091C0008F7703C01A
:1026E0008091C0008F7D8093C00008958091C200CA
:1026F000877F8093C2000895CF93DF9390E0FC0121
:10270000E755F54F2491FC01E853F54F8491882358
:1027100049F190E0880F991FFC01EB50F54FA5910E
:10272000B4918951954FFC01C591D4919FB7611126
:1027300008C0F8948C91209582238C938881822301
:102740000AC0623051F4F8948C91322F3095832373
:102750008C938881822B888304C0F8948C91822B7F
:102760008C939FBFDF91CF9108950F931F93CF93C9
:10277000DF931F92CDB7DEB7282F30E0F901E6577F
:10278000F54F8491F901E755F54F1491F901E8539C
:10279000F54F04910023C9F0882321F069830E943A
:1027A0003F136981E02FF0E0EE0FFF1FE951F54F75
:1027B000A591B4919FB7F8948C91611103C01095C5
:1027C000812301C0812B8C939FBF0F90DF91CF910C
:1027D0001F910F91089508950E9452120E94EB13C9
:1027E00084E996E00E942F190E943306C0E0D0E0F1
:1027F0000E94C5092097E1F30E940000F9CFCF9213
:10280000DF92EF92FF920F931F93CF93DF937C01A0
:102810006A01EB0100E010E00C151D0571F06991F3
:10282000D701ED91FC910190F081E02DC701099550
:10283000892B19F00F5F1F4FEFCFC801DF91CF91A8
:102840001F910F91FF90EF90DF90CF900895611549
:10285000710581F0DB010D900020E9F7AD014150D9
:102860005109461B570BDC01ED91FC910280F3816D
:10287000E02D099480E090E008950C942714DC0189
:10288000ED91FC910190F081E02D09946FEE71E0E3
:102890000C9427140F931F93CF93DF93EC010E94A6
:1028A00027148C01CE010E944614800F911FDF91E6
:1028B000CF911F910F9108958F929F92AF92BF92E7
:1028C000DF92EF92FF920F931F93CF93DF93CDB7D9
:1028D000DEB7A1970FB6F894DEBF0FBECDBF7C0167
:1028E000F42FD52ECB0119A2223008F42AE08E0154
:1028F0000F5D1F4F822E912CA12CB12C6F2F7D2D9F
:10290000A50194010E94241BF22FD32ECA0101506D
:1029100011096A3014F4E0E301C0E7E3E60FD801DF
:10292000EC93232B242B252B49F7B801C7010E94D8
:102930002714A1960FB6F894DEBF0FBECDBFDF916E
:10294000CF911F910F91FF90EF90DF90BF90AF90CC
:102950009F908F900895CF92DF92EF92FF920F9306
:102960001F93CF93DF93EC016A017B0121153105A1
:1029700079F4E881F9810190F081E02D642FDF91F5
:10298000CF911F910F91FF90EF90DF90CF9009941E
:102990002A303105E9F477FF1AC06DE20E943F1436
:1029A0008C0144275527BA014C195D096E097F092E
:1029B0002AE0CE010E945C14800F911FDF91CF911D
:1029C0001F910F91FF90EF90DF90CF9008952AE034
:1029D000B701A601CE01DF91CF911F910F91FF901A
:1029E000EF90DF90CF900C945C149A01AB016627B6
:1029F00057FD6095762F0C94AB14615030F0209108
:102A0000F100FC0120830196F8CF289884E680939A
:102A10009D0608954091980650919906209196063A
:102A20003091970642175307B4F49091E8009570DF
:102A3000E1F39091E80092FD19C08093F10080913C
:102A400098069091990601968F739927892B19F40E
:102A50008EEF8093E80080919806909199060196F8
:102A6000909399068093980681E0089580E00895F8
:102A7000CF92DF92EF92FF920F931F93CF93DF934A
:102A80001F92CDB7DEB7082F162FF42E862F880F92
:102A90008E5F99830E940A1583E00E940A15E02E3A
:102AA000C02E9981D92E8C2D8E19811798F4F6019C
:102AB000F7FE02C0849101C080810E940A15082F90
:102AC00080E00E940A158023FFEFCF1ADF0A8111F0
:102AD000EACF01C081E00F90DF91CF911F910F915C
:102AE000FF90EF90DF90CF9008958091D7008160A4
:102AF0008093D70080EA8093D80089B5806189BD32
:102B000089B5826089BD09B400FEFDCF61E070E047
:102B100080E090E00E9418128091D8008F7C806144
:102B20008093D8008091E000807F8093E00008953A
:102B3000CF93DF931F92CDB7DEB71982CE010196F6
:102B40000E94D8190E94101BBE016F5F7F4F0E9428
:102B5000891A89810F90DF91CF9108952FB7FC01D9
:102B60002083F89467706093E9000895CF93DF9312
:102B70001F92CDB7DEB7682FCE0101960E94AE1529
:102B80008091F20099819FBF0F90DF91CF910895BE
:102B9000FF920F931F93CF93DF9300D0CDB7DEB793
:102BA000F62E8A0190919C06992311F057FF03C0DD
:102BB0008FEF9FEF2BC0682FCE0101967A830E9482
:102BC000AE158091F20090E0A8017A8180179107FC
:102BD0000CF4AC01EF2DF72FF40E84E6FE1639F05D
:102BE000289880939D069091F1009193F7CF41151D
:102BF000510521F08091F200882321F089818FBF57
:102C0000CA0104C08BE68093E800F8CF0F900F90C4
:102C1000DF91CF911F910F91FF900895CF93DF9394
:102C20001F92CDB7DEB741E050E0BE016F5F7F4F2E
:102C30000E94C815019719F4898190E002C08FEFB6
:102C40009FEF0F90DF91CF910895CF93DF931F9265
:102C5000CDB7DEB7682FCE0101960E94AE159091D8
:102C6000E800892F807295FF04C09091F20080E403
:102C7000891B99819FBF0F90DF91CF9108956F922B
:102C80007F928F929F92AF92BF92CF92DF92EF92FC
:102C9000FF920F931F93CF93DF931F92CDB7DEB7B1
:102CA000782E7B01C42EB52E80919C06882369F076
:102CB000042F152F8AEFD82E872D8072982E9AE335
:102CC000A92E872D8074882E11C08FEF9FEF57C0DB
:102CD000872D0E942516682E81110CC0DA94A9F365
:102CE00061E070E080E090E00E941812011511058B
:102CF00079F73BC0282F30E0021713070CF4602E41
:102D0000672DCE0101960E94AE158091E80085FFE7
:102D100029C0262D30E0021B130B992039F06A944C
:102D20008FEF6816B1F01092F100F9CFF701862D00
:102D300077FE07C0815058F094919093F10031963E
:102D4000F9CF815020F091919093F100FACFE20EEB
:102D5000F31E8091E80085FF0FC00115110511F4E5
:102D600081100AC089818FBFC1CF5D9884E68093AE
:102D70009E068C2D9B2D03C0A092E800F3CF0F90F0
:102D8000DF91CF911F910F91FF90EF90DF90CF9047
:102D9000BF90AF909F908F907F906F90089510920A
:102DA000E9001092990610929806909397068093E6
:102DB00096060895CF92DF92FF920F931F93CF93C1
:102DC000DF9300D0CDB7DEB7F82E8A016B01011575
:102DD0001105B1F0F601F7FE02C0849101C08081B7
:102DE00049835A830E940A1501501109FFEFCF1A37
:102DF000DF0A49815A818111EACF8FEF9FEF01C02D
:102E0000CA010F900F90DF91CF911F910F91FF900A
:102E1000DF90CF900895BF92CF92DF92EF92FF9212
:102E20000F931F93CF93DF936C018B01EB013BEF6B
:102E3000B32E2097C1F07E01C134D1051CF020E4EF
:102E4000E22EF12C8091E80082FFFCCFC8018C1BA0
:102E50009D0B6E2D8C0D9D1D0E94FD14B092E800FF
:102E6000CE19DF09E6CFC801DF91CF911F910F91F5
:102E7000FF90EF90DF90CF90BF9008951F920F9238
:102E80000FB60F921124DF92EF92FF920F931F93D0
:102E90002F933F934F935F936F937F938F939F9362
:102EA000AF93BF93EF93FF93CF93DF93CDB7DEB78D
:102EB0006C97DEBFCDBF1092E9008091E80083FFE0
:102EC00023C168E0CE0145960E94FD1482EF8093F5
:102ED000E8003D8937FF05C08091E80080FFFCCF06
:102EE00003C08EEF8093E800832F807609F0F0C056
:102EF0002E894F89D88C21110CC0303829F480914B
:102F00009B068093F10002C01092F1001092F10034
:102F1000F4C0842F90E09D29213049F43111EDC097
:102F2000019709F0EAC080919B068D7F0AC023308B
:102F300059F43111E2C0019709F0DFC080919B067E
:102F4000826080939B06D9C0253041F48091E800CF
:102F500080FFFCCF40684093E300CFC0263009F0EB
:102F60008DC0EB8CFC8C22E0D2122CC080E090E073
:102F70000E94CF160E94981599E08E010F5F1F4F97
:102F8000F801292F11922A95E9F79983DA8291E0C5
:102F90009E8390EA98879AEF9987209198063091BE
:102FA0009906275F3F4F3C832B838D83C7010E9487
:102FB000CF1649E050E0B80180E00E94DA160E9486
:102FC00098159BC0C7010E94CF160E94101BBE011E
:102FD0006B5E7F4F0E94B21A009719F00CF08DC003
:102FE00090C081E0D8120EC08B8D9C8D089719F48B
:102FF00081E0809395068091950681112FC065E14F
:103000007BE031C0E3E0DE127CC08F89882349F188
:10301000823029F440E867E083E39BE01CC0813004
:1030200029F440E86BE087E29BE015C0833009F0AB
:1030300068C00E94101B8E010F5F1F4FB8010E94D5
:10304000D11AF80101900020E9F73197E01BF10B4C
:1030500040E06E2FC8010E9438154DC063E07BE050
:1030600002C06BE37BE06115710509F44AC0FB0106
:10307000449150E080E80E94DA163FC0273009F4FE
:1030800040C0283021F481E08093F10036C029301F
:10309000A1F53370B1F5EBE0F1E081E021E036E33A
:1030A0009081992361F08093E9002093EB00919146
:1030B0009093EC003093ED008F5F873089F78EE7B7
:1030C0008093EA001092EA008F8980939C0615C0D5
:1030D0008B8D9C8D0E94CF16898D811105C0CE01EC
:1030E00045960E94E31907C00E94101BBE016B5E4B
:1030F0007F4F0E94F01A882321F08EEF8093E80022
:1031000003C081E28093EB006C960FB6F894DEBFAB
:103110000FBECDBFDF91CF91FF91EF91BF91AF91E6
:103120009F918F917F916F915F914F913F912F91DF
:103130001F910F91FF90EF90DF900F900FBE0F90B7
:103140001F9018958093E9008091F200882319F070
:103150008AE38093E80008951F920F920FB60F92B2
:1031600011242F933F934F935F936F937F938F938C
:103170009F93AF93BF93CF93EF93FF93C091E100E1
:103180008091E100837F8093E1008093E100C3FFA1
:103190000FC01092E90081E08093EB001092EC00E8
:1031A00082E38093ED0010929C0688E08093F0000B
:1031B000C2FF19C083E00E94A21880919E06882356
:1031C00039F080919E06815080939E06882389F174
:1031D00080919D06882339F080919D0681508093CF
:1031E0009D06882341F1C4FF10C08091E2008E7ECD
:1031F00081608093E2008091E1008F7E8093E10006
:1032000080919A068E7E806111C0C0FF16C08091A9
:10321000E2008E7E80618093E2008091E1008E7EEC
:103220008093E10080919A068E7E816080939A0659
:1032300004C05D9ACDCF289AD6CFFF91EF91CF9160
:10324000BF91AF919F918F917F916F915F914F91BE
:103250003F912F910F900FBE0F901F9018951092D5
:103260009C0610929B0610929A060E9475158091FA
:10327000E1008E7E8093E1008DE08093E200559A1C
:10328000209AEEEFFFE7859194918B3F9C4D19F4C6
:1032900081E08093EF060895611571058105910520
:1032A00011F00C94D91B0895CF93DF9300D000D078
:1032B000CDB7DEB79B01AC016115710581059105A4
:1032C00069F069833A834B835C830E94D41B298114
:1032D0003A814B815C810E94461B03C060E070E034
:1032E000CB010F900F900F900F90DF91CF91089529
:1032F00008950E94E21BCF93DF931F92CDB7DEB7F4
:103300006983DC01ED91FC910280F381E02D41E0C5
:1033100050E0BE016F5F7F4F09950F90DF91CF9115
:103320000895CF93DF93EC018C859D8597FF05C0B1
:1033300082E00E940E169D878C878C859D85DF918B
:10334000CF91089583E00C94A218FC0184859585A3
:1033500097FD06C082E00E94B61590E001960895A0
:1033600082E00E94B61590E00895FC018485958561
:1033700097FD05C02FEF3FEF35872487089582E042
:103380000C940E16CF93DF93EC0180911C018823DF
:1033900031F083E00E943F161816190634F081E0E0
:1033A00090E09B838A8380E090E0DF91CF91089545
:1033B000FC0120812E5F208342E450E06FE37BE03C
:1033C00080E80C94DA16FC0121818081813A59F45D
:1033D000213209F04BC047E050E065E171E080E048
:1033E0000E94DA165EC0813209F040C0233289F4AF
:1033F000838190E0982F88273281832BA0E0B0E072
:103400008093110190931201A0931301B0931401C2
:103410000FC0203239F467E070E085E191E00E944E
:103420000B1709C0223221F4828180931C0103C052
:103430002D7F2032B1F58091EF06811103C0E0E0CD
:10344000F8E002C0EEEFFAE08091150190911601CC
:10345000A0911701B0911801803B9440A105B105DE
:1034600011F580911C0180FF03C01DC080E008950C
:10347000EE3F2AE0F20731F0808191819093FF0ABC
:103480008093FE0A87E797E7918380832BE088E1AA
:1034900090E00FB6F894A895809360000FBE20933B
:1034A000600081E0089588E10FB6F8948093600091
:1034B000109260000FBEA895EE3F8AE0F80739F041
:1034C0008091FE0A9091FF0A91838083EACF109247
:1034D000FF0A1092FE0AE5CF1092A2061092A106F2
:1034E00088EE93E0A0E0B0E08093A3069093A4065A
:1034F000A093A506B093A6068CE092E09093A00658
:1035000080939F068FEF9FEF9093AC068093AB065E
:103510000895EF92FF920F931F93CF93DF937B0158
:10352000FC01C281D38100E010E0209781F0E881A6
:10353000F9810280F381E02DB701CE01099597FD55
:1035400008C0080F191F0884D985C02DEECFC80107
:1035500002C08FEF9FEFDF91CF911F910F91FF90EE
:10356000EF9008950F931F93CF93DF938B01FC018E
:10357000C281D381209771F0E881F9810480F581BF
:10358000E02DB801CE010995009731F40884D98562
:10359000C02DF0CF80E090E0DF91CF911F910F918F
:1035A00008950F931F93CF93DF938B01FC01C2818A
:1035B000D381209771F0E881F9810680F781E02DB1
:1035C000B801CE010995080F111D0884D985C02DB9
:1035D000F0CFF8011082DF91CF911F910F910895E4
:1035E0000F931F93CF93DF938B01FC01C281D38193
:1035F000209771F0E881F9810190F081E02DB80108
:10360000CE010995811106C00884D985C02DF0CF5F
:1036100080E001C081E0DF91CF911F910F9108956B
:103620008091F40681110DC082E08093F00684E061
:103630008093F1061092F3061092F20681E08093D7
:10364000F40680EF96E00895A1E21A2EAA1BBB1B98
:10365000FD010DC0AA1FBB1FEE1FFF1FA217B3075E
:10366000E407F50720F0A21BB30BE40BF50B661F74
:10367000771F881F991F1A9469F760957095809538
:1036800090959B01AC01BD01CF010895052E97FBDC
:103690001EF400940E945D1B57FD07D00E94241B5E
:1036A00007FC03D04EF40C945D1B5095409530956B
:1036B00021953F4F4F4F5F4F08959095809570959E
:1036C00061957F4F8F4F9F4F0895EE0FFF1F05901D
:1036D000F491E02D0994A29FB001B39FC001A39F74
:1036E000700D811D1124911DB29F700D811D11243B
:1036F000911D08950E946B1BA59F900DB49F900D86
:10370000A49F800D911D112408958F929F92AF92D6
:10371000BF92CF92DF92EF92FF92CF93DF93EC01B3
:10372000688179818A819B81611571058105910587
:1037300021F464E279ED8BE597E02DE133EF41E090
:1037400050E00E94461B49015A019B01AC01A7EAC7
:10375000B1E40E947A1B6B017C01ACEEB4EFA501D1
:1037600094010E94F21BC60ED71EE81EF91EF7FE3A
:1037700006C081E0C81AD108E10880E8F80AC882CA
:10378000D982EA82FB82C701B6019F77DF91CF9190
:10379000FF90EF90DF90CF90BF90AF909F908F9071
:1037A00008950E94851B089580E091E00E94851B8A
:1037B000089560930001709301018093020190933A
:1037C0000301089581E090E0F8940C94F71BF999B7
:1037D000FECF92BD81BDF89A992780B50895B7FFB5
:1037E0000C947A1B0E947A1B821B930B0895F89409
:0237F000FFCF09
:1037F2000100000003000200010000C180810000FE
:1038020000FFFFFFFF00E1000000000000417264C2
:1038120075626F790053617973005368616C6C2033
:10382200576520506C617920412047616D650050D9
:103832007265737320412026204220746F204265F6
:1038420067696E0028632920526F646E6579204E85
:103852006F72746F6E00526F756E643A20004C691D
:103862007665733A200053636F72653A20004765AC
:10387200742052656164792100474F20210047611D
:103882006D65204F76657200596F75204C6F7365B8
:103892000050726573732041202B204220746F20E8
:1038A200426567696E0057656C6C20446F6E6500F7
:1038B200596F752062656174207468652067616D57
:1038C2006500507265737320412026204220746F78
:1038D20020626567696E0000000000770DFF130D1E
:1038E2000A006E616E00696E66006F7666002E00D9
:1038F200000000007919FF13000000007B19C219B3
:08390200A519B5199119A219CC
:00000001FF
