:100000000C9451050C9479050C9479050C947905A0
:100010000C9479050C9479050C9479050C94790568
:100020000C9479050C9479050C94ED150C947F14BF
:100030000C9479050C9479050C9479050C94790548
:100040000C9479050C9479050C9479050C94790538
:100050000C9479050C9479050C9479050C94830F14
:100060000C9479050C9479050C9479050C94790518
:100070000C9479050C9479050C9479050C94790508
:100080000C9479050C9479050C9479050C947905F8
:100090000C9479050C9479050C9479050C947905E8
:1000A0000C9479050C9479050C94790598109B10A3
:1000B0008A108E109410BC10BC10BC109F10A3109E
:1000C000A710AD10B110BC10B710000080C0603098
:1000D000180C0406020203010101010101030202DE
:1000E0000206040C3870C0800000F01E03000000FF
:1000F000000006090906000000F8F80000000609E3
:1001000009060000000000031EF00F78C000000088
:100110000000008080808080808383808080808059
:1001200080000000000000C0780F00000103060CF2
:10013000183020604142C4848484848484C4424151
:10014000602030180C0603010000000080C0603001
:10015000180C04060202030101010101010302025D
:100160000206040C3870C0800000F01E030000007E
:10017000000006090906000000F8F8000000060962
:1001800009060000000000031EF00F78C000000008
:100190000000000000808080808383808080800059
:1001A00000000000000000C0780F00000103060CF2
:1001B000183020664544C4848484848484C44445BF
:1001C000662030180C06030100000000000000004B
:1001D00000000000000000000000FFFEFCF8F0E05E
:1001E000C0800000000000000000E0E0E0E0E0E08F
:1001F000E0E0E0E0E0E0E0E0E0E0FFFFFFFFFFFF45
:10020000FFFFFFFEFCF8F0E0C080070707070707C5
:1002100007070707070707070707FFFFFFFFFFFF9E
:10022000FFFFFF7F3F1F0F070301000000000000DA
:1002300000000000000000000000FF7F3F1F0F07CC
:1002400003010000000000000000000000000000AA
:10025000000080C0E0F0F8FCFEFF0000000000009D
:100260000000000000000000000080C0E0F0F8FC8A
:10027000FEFFFFFFFFFFFFFFFFFFE0E0E0E0E0E049
:10028000E0E0E0E0E0E0E0E0E0E00103070F1F3F36
:100290007FFFFFFFFFFFFFFFFFFF070707070707BE
:1002A0000707070707070707070700000000000008
:1002B00000000103070F1F3F7FFF00000000000048
:1002C000000000000000000000000000000000002E
:1002D00000000000000000FFFFFFFFFFFF00000024
:1002E000000000000000000000000000000000000E
:1002F00000000000000000FFFFFFFFFFFF00000004
:10030000000000000000000000000103070F1F3F75
:100310007FFFFFFFFFFFFFFFFFFFFFFFFFFFFFFF6D
:10032000FFFFFF7F3F1F0F070301000000000000D9
:1003300000000103070F1F3F7FFFFF7F3F1F0F07D5
:1003400003010000000000000000000000000000A9
:10035000000080C0E0F0F8FCFEFFFFFEFCF8F0E0DB
:10036000C080000000000000000080C0E0F0F8FC49
:10037000FEFFFFFFFFFFFFFFFFFFFFFFFFFFFFFF8E
:10038000FFFFFFFEFCF8F0E0C0800000000000006E
:1003900000000000000000FFFFFFFFFFFF00000063
:1003A000000000000000000000000000000000004D
:1003B00000000000000000FFFFFFFFFFFF00000043
:1003C0000000000000000000000000000000003EEF
:1003D0005B4F5B3E3E6B4F6B3E1C3E7C3E1C183CB5
:1003E0007E3C181C577D571C1C5E7F5E1C00183C11
:1003F0001800FFE7C3E7FF0018241800FFE7DBE75A
:10040000FF30483A060E2629792926407F05050740
:10041000407F05253F5A3CE73C5A7F3E1C1C08089C
:100420001C1C3E7F14227F22145F5F005F5F060961
:100430007F017F006689956A606060606094A2FFBA
:10044000A29408047E040810207E201008082A1CAC
:1004500008081C2A08081E101010100C1E0C1E0C78
:1004600030383E3830060E3E0E0600000000000018
:10047000005F00000007000700147F147F14242A87
:100480007F2A122313086462364956205000080759
:100490000300001C2241000041221C002A1C7F1C7A
:1004A0002A08083E0808008070300008080808087C
:1004B000000060600020100804023E5149453E00E3
:1004C000427F400072494949462141494D33181441
:1004D000127F1027454545393C4A49493141211190
:1004E00009073649494936464949291E0000140082
:1004F00000004034000000081422411414141414A5
:10050000004122140802015909063E415D594E7C02
:100510001211127C7F494949363E414141227F41B7
:1005200041413E7F494949417F090909013E414115
:1005300051737F0808087F00417F41002040413F00
:10054000017F081422417F404040407F021C027F0F
:100550007F0408107F3E4141413E7F090909063E64
:100560004151215E7F091929462649494932030133
:100570007F01033F4040403F1F2040201F3F403845
:10058000403F631408146303047804036159494D20
:1005900043007F4141410204081020004141417F56
:1005A00004020102044040404040000307080020CC
:1005B000545478407F2844443838444444283844CC
:1005C00044287F385454541800087E090218A4A403
:1005D0009C787F0804047800447D40002040403D22
:1005E000007F1028440000417F40007C047804789C
:1005F0007C080404783844444438FC18242418182F
:10060000242418FC7C08040408485454542404048A
:100610003F44243C4040207C1C2040201C3C403077
:10062000403C44281028444C9090907C4464544CA6
:100630004400083641000000770000004136080001
:1006400002010204023C2623263C1EA1A161123AAB
:100650004040207A385454555921555579412154F8
:10066000547841215554784020545579400C1E52FD
:1006700072123955555559395454545939555454A1
:10068000580000457C410002457D420001457C4008
:10069000F0292429F0F0282528F07C545545002025
:1006A00054547C547C0A097F4932494949323248C2
:1006B000484832324A4848303A4141217A3A424029
:1006C0002078009DA0A07D39444444393D404040FD
:1006D0003D3C24FF2424487E4943662B2FFC2F2BCE
:1006E000FF0929F620C0887E09032054547941006F
:1006F00000447D413048484A32384040227A007AEE
:100700000A0A727D0D19317D2629292F28262929CB
:10071000292630484D4020380808080808080808ED
:10072000382F10C8ACBA2F102834FA00007B000014
:1007300008142A142222142A14089500220095AACB
:10074000005500AAAA55AA55AA000000FF001010E3
:1007500010FF00141414FF001010FF00FF1010F021
:1007600010F0141414FC001414F700FF0000FF0034
:10077000FF1414F404FC141417101F10101F101F82
:100780001414141F00101010F0000000001F1010AF
:1007900010101F10101010F010000000FF101010AB
:1007A000101010101010FF10000000FF140000FFC8
:1007B00000FF00001F10170000FC04F414141710B1
:1007C000171414F404F40000FF00F71414141414A4
:1007D0001414F700F7141414171410101F101F141A
:1007E0001414F4141010F010F000001F101F00007B
:1007F000001F14000000FC140000F010F01010FFA7
:1008000010FF141414FF141010101F00000000F04B
:1008100010FFFFFFFFFFF0F0F0F0F0FFFFFF000020
:10082000000000FFFF0F0F0F0F0F38444438447CC7
:100830002A2A3E147E02020606027E027E026355CA
:100840004941633844443C04407E201E2006027E19
:10085000020299A5E7A5991C2A492A1C4C7201722B
:100860004C304A4D4D303048784830BC625A463D95
:100870003E494949007E0101017E2A2A2A2A2A444A
:10088000445F444440514A444040444A514000007F
:10089000FF0103E080FF000008086B6B083612368A
:1008A0002436060F090F060000181800000010106B
:1008B000003040FF0101001F01011E00191D171229
:1008C000003C3C3C3C0000000000F0F89C8E87831C
:1008D000878E9CF8F00000FEFF0303030303070E5E
:1008E000FCF80000FEFF0303030303070EFCF800FF
:1008F00000FFFF00000000000000FFFF0000FEFFFF
:100900008383838383C7EE7C380000F8FC0E0703E3
:100910000303070EFCF800003F7FE0C08080C0E0CA
:100920007F3FFFFF01010101010101FFFF0000FF07
:10093000FF0C0C0C0C1C3E77E3C100007FFFC0C015
:10094000C0C0C0E0703F1F00001F3F70E0C0C0C0CB
:10095000E0703F1F00007FFFC1C1C1C1C1E3773E0E
:100960001C00001F3F70E0C0C0C0E0703F1F0000CF
:1009700000000001FFFF01000000D5F08D14A1C8A8
:1009800081CFD9F1AF200014021302120215020721
:100990000208020A020A010B020B01090209010402
:1009A000010C010601000000000200090F00000315
:1009B0000401000C00000000000000000000000026
:1009C0000000000000040802011040804010204098
:1009D0008040800802040180402010020110801035
:1009E000204040200404040404030405020202021F
:1009F00004030202020206060606060604040202B8
:100A000002040400000000250028002B002E003105
:100A10000000000000240027002A002D00300012F2
:100A2000010002EF02014041233680000101020370
:100A30000112010002000000404123368000010144
:100A400002030141726475696E6F204C4C43004192
:100A5000726475626F790004030904080B000202D6
:100A60000201000904000001020200000524001038
:100A700001052401010104240206052406000107E2
:100A800005810310004009040100020A000000076C
:100A90000502024000000705830240000000E20951
:100AA000AD1711241FBECFEFDAE0DEBFCDBF12E0DD
:100AB000A0E0B1E0E0EEF2E302C005900D92A632B4
:100AC000B107D9F726E0A6E2B2E001C01D92AC3E24
:100AD000B207E1F71AE0C2EADAE004C02297FE01A9
:100AE0000E94D018CE39D107C9F70E942D110C945D
:100AF0006E190C94000086E292E00E94320E62E0D1
:100B000086E292E00E942C0E40E050E064E170E04A
:100B100086E292E00E94260E6DE171E086E292E0AC
:100B20000E948B114FE050E065E270E086E292E0B7
:100B30000E94260E65E271E086E292E00E948B112F
:100B400061E086E292E00E942C0E6EEF71E086E298
:100B500092E00E947E116AE271E086E292E00E94D9
:100B60008B1160E471E086E292E00E948B1165E5F2
:100B700071E086E292E00E947E118AE292E00C949B
:100B8000820C8AE292E00E94DA0C0E947B056CE300
:100B90008AE292E00C94B10A40E050E06BE470E02D
:100BA00086E292E00E94260E6AE671E086E292E01A
:100BB0000E947E1160910801709109014AE050E0A5
:100BC00086E292E00E94361249E050E06BE470E069
:100BD00086E292E00E94260E62E771E086E292E0F1
:100BE0000E947E1160910401709105014AE050E07D
:100BF00086E292E00E94361247E350E06BE470E038
:100C000086E292E00E94260E6AE771E086E292E0B8
:100C10000E947E1160914502709146024AE050E0C8
:100C200086E292E00E9436128AE292E00C94820CF4
:100C3000CF92EF920F93CF93DF9310924202C0E0D6
:100C4000D0E08AE292E00E94000D6CE08AE292E03D
:100C50000E94EE0C8823F1F086E292E00E94320EB0
:100C600040E050E060E070E086E292E00E94260EF4
:100C700062E871E086E292E00E947E118AE292E0F0
:100C80000E94820C68EE73E080E090E00E94F00F1A
:100C90000E94C10560E88AE292E00E940B0D882361
:100CA000E1F11092440210924302CC24C394E0E29A
:100CB000EE2E00E22AE433E040E050E06FE070E026
:100CC0008AE292E00E944B0B0E94CC0564EF71E037
:100CD00080E090E00E94F00FC12C2AE433E040E075
:100CE00050E06FE070E08AE292E00E944B0BFE0160
:100CF000EE0FFF1FE95BFD4F80819181892B09F089
:100D0000D6C021968091450290914602019690931B
:100D10004602809345020E94CC0560E18AE292E09F
:100D20000E940B0D8823E1F11092440210924302BD
:100D3000CC24C39460E2E62E00E22AEC32E040E2EA
:100D400050E06FE070E08AE292E00E944B0B0E945C
:100D5000CC0564EF71E080E090E00E94F00FC12CC0
:100D60002AEC32E040E250E06FE070E08AE292E08C
:100D70000E944B0BFE01EE0FFF1FE95BFD4F8081D0
:100D80009181029709F093C021968091450290913C
:100D90004602019690934602809345020E94CC053C
:100DA00060E28AE292E00E940B0D8823E1F110924A
:100DB000440210924302CC24C39440E2E42E00E2A9
:100DC0002AE432E04FE050E060E070E08AE292E036
:100DD0000E944B0B0E94CC0564EF71E080E090E034
:100DE0000E94F00FC12C2AE432E04FE050E060E0B6
:100DF00070E08AE292E00E944B0BFE01EE0FFF1FB3
:100E0000E95BFD4F80819181039709F050C02196E5
:100E100080914502909146020196909346028093FC
:100E200045020E94CC0560E48AE292E00E940B0D2C
:100E3000882309F449C01092440210924302CC2442
:100E4000C39420E2E22E00E22AEC31E04FE050E0D1
:100E500067E270E08AE292E00E944B0B0E94CC05B0
:100E600064EF71E080E090E00E94F00FC12C2AEC6A
:100E700031E04FE050E067E270E08AE292E00E94E9
:100E80004B0BFE01EE0FFF1FE95BFD4F808191814F
:100E9000019769F42196809145029091460201964E
:100EA00090934602809345020E94CC050DC080912C
:100EB000040190910501019790930501809304012D
:100EC00081E08093420208C0809106019091070161
:100ED000C817D9070CF4B5CE80914202CC24C39434
:100EE00090E2E92E00E28823E9F12AE431E040E1D2
:100EF00050E06FE070E08AE292E00E944B0B0E94AB
:100F0000CC0568EE73E080E090E00E94F00FC12C09
:100F10002AE431E040E150E06FE070E08AE292E0E4
:100F20000E944B0B0E94CC0564EF71E080E090E0E2
:100F30000E94F00F80910801909109010197909310
:100F400009018093080180910601909107010197A2
:100F50009093070180930601DF91CF910F91EF905D
:100F6000CF9008952AEC30E040E150E06FE070E06F
:100F70008AE292E00E944B0B0E94CC0568EE73E07F
:100F800080E090E00E94F00FC12C2AEC30E040E1BC
:100F900050E06FE070E08AE292E00E944B0B0E940A
:100FA000CC0564EF71E080E090E0DF91CF910F918C
:100FB000EF90CF900C94F00F4F925F926F927F92D0
:100FC000AF92BF92CF92EF920F93CF93DF9334E61D
:100FD000432E512C612C712C8091080190910901B4
:100FE00045970CF027C1B7E4AB2EB2E0BB2EC0E0B2
:100FF000D0E080910801909109018C179D070CF4B5
:10100000A1C064E070E080E090E00E949516A3012A
:1010100092010E94AF18F501619371935F01611510
:101020007105E9F4CC24C39420E2E22E00E22AE424
:1010300033E040E050E06FE070E08AE292E00E942E
:101040004B0B0E94CC0568EE73E080E090E00E94BC
:10105000F00FC12C2AE433E040E050E041C06130A1
:101060007105F9F4CC24C39490E2E92E00E22AEC55
:1010700031E04FE050E067E270E08AE292E00E94E7
:101080004B0B0E94CC0568EE73E080E090E00E947C
:10109000F00FC12C2AEC31E04FE050E067E270E045
:1010A00043C062307105F9F4CC24C39480E2E82E89
:1010B00000E22AEC32E040E250E06FE070E08AE2C9
:1010C00092E00E944B0B0E94CC0568EE73E080E03A
:1010D00090E00E94F00FC12C2AEC32E040E250E098
:1010E0006FE070E021C06330710551F5CC24C394EA
:1010F00000E2E02E00E22AE432E04FE050E060E05F
:1011000070E08AE292E00E944B0B0E94CC0568EEF0
:1011100073E080E090E00E94F00FC12C2AE432E0FE
:101120004FE050E060E070E08AE292E00E944B0BFA
:101130000E94CC0564EF71E080E090E00E94F00F27
:10114000219657CFC3E0D0E086E292E00E94320EB3
:1011500049E150E069E170E086E292E00E94260EEB
:101160006CE871E086E292E00E947E1143E250E07A
:1011700062E370E086E292E00E94260E4AE050E0D0
:10118000BE0186E292E00E9436120E94CC0564EF16
:1011900071E080E090E00E94F00F2197A9F686E2CE
:1011A00092E00E94320E62E086E292E00E942C0EF3
:1011B00049E150E068E270E086E292E00E94260E8B
:1011C00067E971E086E292E00E947E118AE292E095
:1011D0000E94820C64EF71E080E090E00E94F00FCA
:1011E00086E292E00E94320E61E086E292E00E9486
:1011F0002C0E0E94CC050E94180680910801909147
:1012000009010196909309018093080180910601DC
:1012100090910701019690930701809306018091B8
:10122000040190910501181619060CF4D5CE0E9400
:101230008209D2CEDF91CF910F91EF90CF90BF90E6
:10124000AF907F906F905F904F900C9482098AE2EC
:1012500092E00E94000D6CE08AE292E00E94EE0CA7
:10126000882309F44EC081E090E0909309018093B7
:10127000080182E090E090930701809306011092AC
:1012800046021092450283E090E09093050180931E
:101290000401109244021092430286E292E00E94FE
:1012A000320E49E150E06EE170E086E292E00E9489
:1012B000260E6AE671E086E292E00E947E1160915D
:1012C0000801709109014AE050E086E292E00E9434
:1012D00036128AE292E00E94820C68EE73E080E0AF
:1012E00090E00E94F00F86E292E00E94320E8AE2C5
:1012F00092E00E94D40A8AE292E00E94820C0C944E
:10130000DC070895809104019091050118161906D3
:101310003CF186E292E00E94320E40E050E060E054
:1013200070E086E292E00E94260E6CE971E086E2AF
:1013300092E00E948B1166EA71E086E292E00E94E0
:101340008B116FEA71E086E292E00E947E118AE2E0
:1013500092E00E94820C68EB7BE080E090E02DC080
:1013600086E292E00E94320E40E050E060E070E0E1
:1013700086E292E00E94260E64EC71E086E292E042
:101380000E948B116EEC71E086E292E00E948B115C
:1013900060EE71E086E292E00E948B118AE292E0B8
:1013A0000E94820C6CE08AE292E00E94EE0C8111B5
:1013B00007C064E670E080E090E00E94F00FF2CF9A
:1013C0000C94270986E292E00C94150DCF93CFB7C9
:1013D000F89480917302811127C0E5EFF9E08491C0
:1013E000E6EDF9E09491E82FF0E0EE0FFF1FEF5EDD
:1013F000F54FA591B4918C91892321F461E081E1AD
:101400000E94F61061E081E10E94BD108CB5806100
:101410008CBD8CB580648CBD61E08FE00E94BD10F6
:1014200061E080E10E94BD10809173028F5F809324
:101430007302CFBFCF910895CF93DF93EC010E9449
:101440005A0E19821A8280E18D831C821B821A86B1
:101450001B861C861D861E86DF91CF9108950E94F3
:10146000680F80788038B9F485EA0E943F0F40E029
:1014700060E080E00E944F0F0E94680F84FD03C06F
:101480000E940F0FF9CF41E061E081E00E944F0F11
:1014900084EA0C943F0F0895FF920F931F93CF930C
:1014A000DF931F92CDB7DEB7F42E122F69830E940F
:1014B000680F6981082F0623061328C061E089E0C0
:1014C0000E94F61068EC70E080E090E00E94F00F5F
:1014D00060E08F2D0E94F61082E090E00E9450198B
:1014E000181729F0612F82E090E00E94581964EFEC
:1014F00071E080E090E00E94F00F61E08F2D0E948B
:10150000F6100E94680F80238017D9F30F90DF91A7
:10151000CF911F910F91FF900895CF93DF93EC012E
:101520000E94680F82FF17C060E089E00E94F610F9
:101530002FEF4BE064E8CE010E944C0A20E04AE025
:1015400064E1CE010E944C0A68EC70E080E090E01B
:101550000E94F00FE5CF61E089E0DF91CF910C941C
:10156000F610FC0170E088EE93E00E947918658324
:10157000089560937C00673C19F480E280937B00BF
:1015800062E070E080E090E00E94F00F80917A00CD
:10159000806480937A0080917A0086FDFCCF8091F0
:1015A0007800909179000895CF92DF92EF92FF92A8
:1015B000CF93DF937C01C4E6D0E088818E7F88835F
:1015C00067ECC7010E94B90A6C016EE5C7010E9471
:1015D000B90A7C010E94CD0F9B01AC01E094F0940C
:1015E000C094D094EC9CD001ED9CB00DFC9CB00D4F
:1015F000112420953095409550950E94D4186B0188
:101600007C010E94CD0F6C0D7D1D8E1D9F1D0E94C3
:101610008D16888181608883DF91CF91FF90EF9054
:10162000DF90CF9008956038710518F5403451056A
:1016300000F5E42FE695E695E695F0E0477055272E
:10164000F695FE2FEE27F795E795E60FF71FEC5876
:10165000FD4F81E090E0042E01C0880F0A94EAF764
:10166000222319F09081982B03C0809590819823B4
:101670009083089584E792E0B62FB111BFEFFC018B
:101680000024B193B193B193B1930394D1F708952A
:1016900060E00C943A0B2F923F924F925F926F92C0
:1016A0007F928F929F92AF92BF92CF92DF92EF92F2
:1016B000FF920F931F93CF93DF9300D000D01F9220
:1016C000CDB7DEB7C982202E312CCB01820D931D00
:1016D00097FD00C1603871050CF0FCC0CA018E0D89
:1016E000911D97FDF7C0403451050CF0F3C0CA01BD
:1016F00057FF04C088279927841B950B877099276B
:10170000FA0157FD3796DF01F3E0B595A795FA95F5
:10171000E1F7BB83AA8357FF09C01197BB83AA8354
:1017200048E050E0FA01E81BF90BCF014E2D469539
:1017300046954695C42ED12C4E2D477019F0FFEFDB
:10174000CF1ADF0A49012A813B813695322F2227A1
:10175000379527952C583D4F3D832C834A815B81DB
:10176000E8E06E2E712C681A790A9A01AA81BB8171
:101770002A1B3B0B2C153D050CF0ACC04830510525
:1017800009F4A8C04F3F3FEF53070CF494C09B01EE
:1017900000E010E0AC81BD81A058BF4F2D010215C3
:1017A00013050CF088C02038310509F484C037FDDA
:1017B0007DC04F3FBFEF5B0709F488C0D801A80D7B
:1017C000B91DEC80FD80E20EF31EE981E13061F489
:1017D000FD01A491082E01C0AA0F0A94EAF7F701AF
:1017E000B080AB29A08321C0F981F11112C0FD01A5
:1017F000A491EA2FF0E0082E02C0EE0FFF1F0A941A
:10180000E2F7E095F095D701AC90B12CEA21FB21ED
:101810000BC0FD01A491EA2F082E01C0EE0F0A941F
:10182000EAF7D701BC90EB25EC93009709F43EC092
:101830004730510509F43AC0F801E80DF91DB981A6
:10184000B13079F4E491F0E0062C02C0F595E7950B
:101850000A94E2F77201E20EF31ED701BC90EB2965
:1018600024C0B981B11113C0E491F0E0062C02C08C
:10187000F595E7950A94E2F7E095F0957201E20E8E
:10188000F31ED701AC90B12CEA21FB210EC0E491EC
:10189000F0E0062C02C0F595E7950A94E2F7720194
:1018A000E20EF31ED701BC90EB25EC930F5F1F4FA8
:1018B0002F5F3F4F74CF4F5F5F4F820C931C2C8183
:1018C0003D8120583F4F3D832C834FCF009709F037
:1018D000B3CFECCF0F900F900F900F900F90DF9140
:1018E000CF911F910F91FF90EF90DF90CF90BF901D
:1018F000AF909F908F907F906F905F904F903F90B0
:101900002F90089560E084E792E00C941A0FAF9254
:10191000BF92CF92EF920F931F93CF93DF935C010F
:1019200060E08AE00E94F610CEEEDFEF1C2FCC3F85
:1019300019F441E060E004C0C83129F440E061E0FE
:1019400081E00E944F0FC5010E94480BCC24C39434
:10195000E0E1EE2E08E52AEC38E0AE0164E170E04B
:10196000C5010E944B0BC5010E94820C6BE170E027
:1019700080E090E00E94F00F103F31F46AEF70E0D9
:1019800080E090E00E94F00F2196C931D10571F6F8
:101990006EEE72E080E090E00E94F00F61E089E07E
:1019A000DF91CF911F910F91EF90CF90BF90AF90AB
:1019B0000C94F610CF93DF93EC010E948D0E0E94E1
:1019C000330FCE010E942F0ACE010E948D0ACE0154
:1019D0000E94870CDF91CF910C944B0ECF93DF9335
:1019E0001F92CDB7DEB769830E94680F6981982F77
:1019F000962381E0961380E00F90DF91CF910895B8
:101A0000CF93DF93EC0189818A830E94680F8983D9
:101A1000DF91CF910895FC012281262321F091814D
:101A2000962381E009F080E00895CF93DF93EC01E5
:101A300082E192E0998388831B821A82CE01049608
:101A40000E941C0A89EF91E0998388831D8A1C8A71
:101A50001F8A1E8A81E0888F198E8A8F1B8EDF91E4
:101A6000CF9108952F923F924F925F926F927F9203
:101A70008F929F92AF92BF92CF92DF92EF92FF929E
:101A80000F931F93CF93DF93CDB7DEB728970FB691
:101A9000F894DEBF0FBECDBF2A01603871050CF08F
:101AA00071C0403451050CF06DC0AB01A5E0CA9E79
:101AB000400D511D1124141615060CF063C0EC2DB9
:101AC000F0E0FC83EB83A201F8E0CF9E400D511DB6
:101AD0001124141615060CF055C0A5E02A9FA0018C
:101AE00011245B0118861F8246535C4F5A83498339
:101AF000FC013496FE83ED83FF81F53041F0E981EE
:101B0000FA812F813885E20FF31F149101C010E094
:101B10003201F8E0DF2E10FF02C0F02E01C0FE2CD3
:101B2000F1100BC0E01209C01695DA944B815C816C
:101B3000640E751ED110EFCF19C01501822D8A19C0
:101B40008C1590F74301882D86198C1558F42F2D8C
:101B5000A401B1018D819E810E94130B5FEF851A54
:101B6000950AF1CF8FEF281A380AE8CFAF81B885F0
:101B70001196B887AF83EB81FC81AE0EBF1E16971E
:101B800009F0BACF28960FB6F894DEBF0FBECDBFCE
:101B9000DF91CF911F910F91FF90EF90DF90CF9049
:101BA000BF90AF909F908F907F906F905F904F907D
:101BB0003F902F900895CF92EF920F93CF93DF93A2
:101BC000EC01262F6A3069F42A8D8E899F8938E0CE
:101BD000239F800D911D11249F8B8E8B1D8A1C8A43
:101BE0002DC06D3059F14E895F896C897D89CA8C11
:101BF000E98C088D0E94320D2A8D422F50E08C898D
:101C00009D8936E0239F800D911D11249D8B8C8B27
:101C10002B8D222399F06AEF64039001659F300DAC
:101C2000112420583F4F2817390744F4E881F981DF
:101C30000190F081E02D6AE0CE01099581E090E00D
:101C4000DF91CF910F91EF90CF900895FC01758BAC
:101C5000648B578B468B0895611101C061E0FC01D4
:101C6000628F0895CF93DF93EC0104960E94480B96
:101C70001F8A1E8A1D8A1C8ADF91CF91089561E018
:101C800085E00E94BD1061E08DE00E94BD1081E002
:101C900080937406089582E090E00E9450198111AB
:101CA0000C943F0E08958EBD00000DB407FEFDCFCD
:101CB0008EB508950895E0917706F09178068081B9
:101CC00090917506892B8083E0917906F0917A06D0
:101CD0009081809176068095892380830895E09194
:101CE0007906F0917A06808190917606892B80831F
:101CF000E0917706F0917806908180917506809545
:101D000089238083E0917906F0917A069081809111
:101D100076068095892380830895CF93DF930E9470
:101D2000E609C7E8D9E0BE01FE01849122966F5F03
:101D30007F4FFB016491882319F00E94BD10F3CFFF
:101D400061E086E00E94F61061E070E080E090E0E3
:101D50000E94F00F60E086E00E94F6106AE070E0FA
:101D600080E090E00E94F00F61E086E00E94F610B3
:101D7000E0EFF9E0E491F0E0EE0FFF1FED5FF54FCB
:101D80008591949190937A0680937906E1EDF9E03C
:101D9000E491E0937606E8EEF9E0E491F0E0EE0FEE
:101DA000FF1FED5FF54F8591949190937806809396
:101DB0007706E9ECF9E0E491E09375068CB58C7F49
:101DC0008CBD8DB581608DBD0E946F0ECAE7D9E0D4
:101DD000FE0184910E94530E2196F9E0C738DF0777
:101DE000B9F70E945B0E809164008160809364006B
:101DF00080916400826080936400809164008068B8
:101E0000809364008091640080648093640080917A
:101E10006500816080936500DF91CF91089583B75D
:101E2000817F83BF83B7816083BF889583B78E7FAF
:101E300083BF0895FC0180818EBD611110823196AF
:101E400082E090E02081611110820DB407FEFDCF89
:101E50002EBD01963196813024E0920799F70DB49A
:101E600007FEFDCF0895CF93DF93C0E0D4E080E07C
:101E70000E94530E2197D9F7DF91CF910895CF9308
:101E8000DF931F92CDB7DEB789830E946F0E8981E1
:101E90000E94530E0F90DF91CF910C945B0E1F9315
:101EA000CF93DF931F92CDB7DEB7162F682F8AE04E
:101EB00049830E94F610612F8BE00E94F610498141
:101EC000642F89E00F90DF91CF911F910C94F61051
:101ED0008FB14CB123B150E04095509540745527D7
:101EE00033E0559547953A95E1F730E020953095E8
:101EF000207133273595279535952795242B809587
:101F0000807F822B08951F920F920FB60F9211249B
:101F10002F933F938F939F93AF93BF9380917C06B2
:101F200090917D06A0917E06B0917F0630917B0650
:101F300023E0230F2D3720F40196A11DB11D05C00C
:101F400026E8230F0296A11DB11D20937B068093E6
:101F50007C0690937D06A0937E06B0937F068091C9
:101F6000800690918106A0918206B0918306019629
:101F7000A11DB11D8093800690938106A0938206D7
:101F8000B0938306BF91AF919F918F913F912F9115
:101F90000F900FBE0F901F9018953FB7F894809147
:101FA000800690918106A0918206B091830626B5A5
:101FB000A89B05C02F3F19F00196A11DB11D3FBF81
:101FC0006627782F892F9A2F620F711D811D911D11
:101FD00042E0660F771F881F991F4A95D1F7089531
:101FE0008F929F92AF92BF92CF92DF92EF92FF9229
:101FF0006B017C010E94CD0F4B015C01C114D10427
:10200000E104F104F1F00E94B9160E94CD0F6819A5
:1020100079098A099B09683E73408105910570F32F
:1020200021E0C21AD108E108F10888EE880E83E0A9
:10203000981EA11CB11CC114D104E104F10429F7BC
:10204000DDCFFF90EF90DF90CF90BF90AF909F904B
:102050008F900895789484B5826084BD84B5816042
:1020600084BD85B5826085BD85B5816085BDEEE6A0
:10207000F0E0808181608083E1E8F0E0108280817F
:1020800082608083808181608083E0E8F0E08081ED
:1020900081608083E1E9F0E08081826080838081DB
:1020A00081608083E0E9F0E0808181608083E1EC01
:1020B000F0E0808184608083808182608083808181
:1020C00081608083E3ECF0E0808181608083E0ECDC
:1020D000F0E0808182608083E2ECF0E080818160CA
:1020E0008083EAE7F0E08081846080838081826081
:1020F000808380818160808380818068808308956F
:1021000090E0FC013197EF30F105B0F5EA5AFF4F4E
:102110000C94CE18809180008F7703C0809180004E
:102120008F7D80938000089580918000877FF9CF14
:1021300084B58F7702C084B58F7D84BD089580916A
:1021400090008F7707C0809190008F7D03C08091B1
:102150009000877F8093900008958091C0008F77D2
:1021600003C08091C0008F7D8093C000089580914E
:10217000C200877F8093C2000895CF93DF9390E0E1
:10218000FC01EB53F64F2491FC01EC51F64F849186
:10219000882349F190E0880F991FFC01EF5EF54F0D
:1021A000A591B4918D5F954FFC01C591D4919FB7D6
:1021B000611108C0F8948C91209582238C938881BA
:1021C00082230AC0623051F4F8948C91322F3095FA
:1021D00083238C938881822B888304C0F8948C910C
:1021E000822B8C939FBFDF91CF9108950F931F9304
:1021F000CF93DF931F92CDB7DEB7282F30E0F901E0
:10220000EA55F64F8491F901EB53F64F1491F90119
:10221000EC51F64F04910023C9F0882321F0698323
:102220000E9480106981E02FF0E0EE0FFF1FED5F4C
:10223000F54FA591B4919FB7F8948C91611103C0AB
:102240001095812301C0812B8C939FBF0F90DF914C
:10225000CF911F910F91089508950E942A100E9416
:102260002C1184E896E00E9470160E94C105C0E01F
:10227000D0E00E9427092097E1F30E940000F9CFE7
:10228000CF92DF92EF92FF920F931F93CF93DF9342
:102290007C016A01EB0100E010E00C151D0571F0F6
:1022A0006991D701ED91FC910190F081E02DC7017A
:1022B0000995892B19F00F5F1F4FEFCFC801DF91F0
:1022C000CF911F910F91FF90EF90DF90CF900895E5
:1022D0006115710581F0DB010D900020E9F7AD017A
:1022E00041505109461B570BDC01ED91FC910280D6
:1022F000F381E02D099480E090E008950C9468113A
:10230000DC01ED91FC910190F081E02D09946DEFDD
:1023100071E00C9468110F931F93CF93DF93EC013E
:102320000E9468118C01CE010E948711800F911FBD
:10233000DF91CF911F910F9108958F929F92AF924D
:10234000BF92DF92EF92FF920F931F93CF93DF9391
:10235000CDB7DEB7A1970FB6F894DEBF0FBECDBFE5
:102360007C01F42FD52ECB0119A2223008F42AE0EB
:102370008E010F5D1F4F822E912CA12CB12C6F2F3F
:102380007D2DA50194010E948D18F22FD32ECA0134
:10239000015011096A3014F4E0E301C0E7E3E60FED
:1023A000D801EC93232B242B252B49F7B801C70127
:1023B0000E946811A1960FB6F894DEBF0FBECDBF84
:1023C000DF91CF911F910F91FF90EF90DF90BF9021
:1023D000AF909F908F900895CF92DF92EF92FF92EF
:1023E0000F931F93CF93DF93EC016A017B012115BB
:1023F000310579F4E881F9810190F081E02D642FB5
:10240000DF91CF911F910F91FF90EF90DF90CF90D0
:1024100009942A303105E9F477FF1AC06DE20E9471
:1024200080118C0144275527BA014C195D096E09AA
:102430007F092AE0CE010E949D11800F911FDF913C
:10244000CF911F910F91FF90EF90DF90CF90089563
:102450002AE0B701A601CE01DF91CF911F910F9124
:10246000FF90EF90DF90CF900C949D119A01AB01FB
:10247000662757FD6095762F0C94EC11615030F073
:102480002091F100FC0120830196F8CF289884E682
:1024900080938D0608954091880650918906209179
:1024A00086063091870642175307B4F49091E800EE
:1024B0009570E1F39091E80092FD19C08093F100CE
:1024C000809188069091890601968F739927892BB0
:1024D00019F48EEF8093E800809188069091890628
:1024E0000196909389068093880681E0089580E0A4
:1024F0000895CF92DF92EF92FF920F931F93CF93A5
:10250000DF931F92CDB7DEB7082F162FF42E862F3C
:10251000880F8E5F99830E944B1283E00E944B12BA
:10252000E02EC02E9981D92E8C2D8E19811798F40A
:10253000F601F7FE02C0849101C080810E944B1217
:10254000082F80E00E944B128023FFEFCF1ADF0A92
:102550008111EACF01C081E00F90DF91CF911F91EF
:102560000F91FF90EF90DF90CF9008958091D7006A
:1025700081608093D70080EA8093D80089B580611C
:1025800089BD89B5826089BD09B400FEFDCF61E0D7
:1025900070E080E090E00E94F00F8091D8008F7C86
:1025A00080618093D8008091E000807F8093E0007C
:1025B0000895CF93DF931F92CDB7DEB71982CE0176
:1025C00001960E9419170E945118BE016F5F7F4F3C
:1025D0000E94CA1789810F90DF91CF9108952FB77C
:1025E000FC012083F89467706093E9000895CF930D
:1025F000DF931F92CDB7DEB7682FCE0101960E9400
:10260000EF128091F20099819FBF0F90DF91CF91DF
:102610000895FF920F931F93CF93DF9300D0CDB710
:10262000DEB7F62E8A0190918C06992311F057FFA0
:1026300003C08FEF9FEF2BC0682FCE0101967A83E6
:102640000E94EF128091F20090E0A8017A81801739
:1026500091070CF4AC01EF2DF72FF40E84E6FE1673
:1026600039F0289880938D069091F1009193F7CFDF
:102670004115510521F08091F200882321F08981D4
:102680008FBFCA0104C08BE68093E800F8CF0F909B
:102690000F90DF91CF911F910F91FF900895CF93ED
:1026A000DF931F92CDB7DEB741E050E0BE016F5F10
:1026B0007F4F0E940913019719F4898190E002C0AD
:1026C0008FEF9FEF0F90DF91CF910895CF93DF931E
:1026D0001F92CDB7DEB7682FCE0101960E94EF1290
:1026E0009091E800892F807295FF04C09091F200CC
:1026F00080E4891B99819FBF0F90DF91CF9108954E
:102700006F927F928F929F92AF92BF92CF92DF9201
:10271000EF92FF920F931F93CF93DF931F92CDB74A
:10272000DEB7782E7B01C42EB52E80918C068823CF
:1027300069F0042F152F8AEFD82E872D8072982EDE
:102740009AE3A92E872D8074882E11C08FEF9FEFFA
:1027500057C0872D0E946613682E81110CC0DA9431
:10276000A9F361E070E080E090E00E94F00F0115B5
:10277000110579F73BC0282F30E0021713070CF43E
:10278000602E672DCE0101960E94EF128091E80025
:1027900085FF29C0262D30E0021B130B992039F04C
:1027A0006A948FEF6816B1F01092F100F9CFF7013B
:1027B000862D77FE07C0815058F094919093F100D8
:1027C0003196F9CF815020F091919093F100FACF9A
:1027D000E20EF31E8091E80085FF0FC00115110580
:1027E00011F481100AC089818FBFC1CF5D9884E642
:1027F00080938E068C2D9B2D03C0A092E800F3CF12
:102800000F90DF91CF911F910F91FF90EF90DF908C
:10281000CF90BF90AF909F908F907F906F900895D2
:102820001092E9001092890610928806909387060C
:10283000809386060895CF92DF92FF920F931F93A5
:10284000CF93DF9300D0CDB7DEB7F82E8A016B01AE
:1028500001151105B1F0F601F7FE02C0849101C027
:10286000808149835A830E944B1201501109FFEF66
:10287000CF1ADF0A49815A818111EACF8FEF9FEF8A
:1028800001C0CA010F900F90DF91CF911F910F915E
:10289000FF90DF90CF900895BF92CF92DF92EF929A
:1028A000FF920F931F93CF93DF936C018B01EB018A
:1028B0003BEFB32E2097C1F07E01C134D1051CF04F
:1028C00020E4E22EF12C8091E80082FFFCCFC801C9
:1028D0008C1B9D0B6E2D8C0D9D1D0E943E12B09287
:1028E000E800CE19DF09E6CFC801DF91CF911F9133
:1028F0000F91FF90EF90DF90CF90BF9008951F92BF
:102900000F920FB60F921124DF92EF92FF920F9366
:102910001F932F933F934F935F936F937F938F9367
:102920009F93AF93BF93EF93FF93CF93DF93CDB775
:10293000DEB76C97DEBFCDBF1092E9008091E80052
:1029400083FF23C168E0CE0145960E943E1282EFCC
:102950008093E8003D8937FF05C08091E80080FF43
:10296000FCCF03C08EEF8093E800832F807609F0C0
:10297000F0C02E894F89D88C21110CC0303829F431
:1029800080918B068093F10002C01092F1001092AA
:10299000F100F4C0842F90E09D29213049F43111D9
:1029A000EDC0019709F0EAC080918B068D7F0AC0C7
:1029B000233059F43111E2C0019709F0DFC0809152
:1029C0008B06826080938B06D9C0253041F48091BC
:1029D000E80080FFFCCF40684093E300CFC0263082
:1029E00009F08DC0EB8CFC8C22E0D2122CC080E070
:1029F00090E00E9410140E94D91299E08E010F5F9E
:102A00001F4FF801292F11922A95E9F79983DA824D
:102A100091E09E8390EA98879AEF998720918806A3
:102A200030918906275F3F4F3C832B838D83C701FD
:102A30000E94101449E050E0B80180E00E941B148D
:102A40000E94D9129BC0C7010E9410140E94511805
:102A5000BE016B5E7F4F0E94F317009719F00CF0D8
:102A60008DC090C081E0D8120EC08B8D9C8D0897D0
:102A700019F481E0809385068091850681112FC02D
:102A800061E37AE031C0E3E0DE127CC08F89882305
:102A900049F1823029F440E867E08FE49AE01CC0F5
:102AA000813029F440E86BE083E49AE015C083307C
:102AB00009F068C00E9451188E010F5F1F4FB801C6
:102AC0000E941218F80101900020E9F73197E01BED
:102AD000F10B40E06E2FC8010E9479124DC06FE1EA
:102AE0007AE002C067E57AE06115710509F44AC031
:102AF000FB01449150E080E80E941B143FC0273046
:102B000009F440C0283021F481E08093F10036C000
:102B10002930A1F53370B1F5EBE0F1E081E021E07F
:102B200036E39081992361F08093E9002093EB00D4
:102B300091919093EC003093ED008F5F873089F78F
:102B40008EE78093EA001092EA008F8980938C06CA
:102B500015C08B8D9C8D0E941014898D811105C02C
:102B6000CE0145960E94241707C00E945118BE014D
:102B70006B5E7F4F0E943118882321F08EEF809387
:102B8000E80003C081E28093EB006C960FB6F894E6
:102B9000DEBF0FBECDBFDF91CF91FF91EF91BF910F
:102BA000AF919F918F917F916F915F914F913F91E5
:102BB0002F911F910F91FF90EF90DF900F900FBE1C
:102BC0000F901F9018958093E9008091F200882360
:102BD00019F08AE38093E80008951F920F920FB6D0
:102BE0000F9211242F933F934F935F936F937F9393
:102BF0008F939F93AF93BF93CF93EF93FF93C09126
:102C0000E1008091E100837F8093E1008093E10007
:102C1000C3FF0FC01092E90081E08093EB00109297
:102C2000EC0082E38093ED0010928C0688E08093A4
:102C3000F000C2FF19C083E00E94E31580918E0668
:102C4000882339F080918E06815080938E068823E8
:102C500089F180918D06882339F080918D0681500D
:102C600080938D06882341F1C4FF10C08091E2005B
:102C70008E7E81608093E2008091E1008F7E809360
:102C8000E10080918A068E7E806111C0C0FF16C06F
:102C90008091E2008E7E80618093E2008091E1006D
:102CA0008E7E8093E10080918A068E7E8160809383
:102CB0008A0604C05D9ACDCF289AD6CFFF91EF91B6
:102CC000CF91BF91AF919F918F917F916F915F91C4
:102CD0004F913F912F910F900FBE0F901F9018951D
:102CE00010928C0610928B0610928A060E94B612E1
:102CF0008091E1008E7E8093E1008DE08093E20080
:102D0000559A209AEEEFFFE7859194918B3F9C4D69
:102D100019F481E08093DF0608956115710581053E
:102D2000910511F00C9442190895CF93DF9300D0D0
:102D300000D0CDB7DEB79B01AC01611571058105EF
:102D4000910569F069833A834B835C830E943D1946
:102D500029813A814B815C810E94AF1803C060E0F9
:102D600070E0CB010F900F900F900F90DF91CF91FB
:102D7000089508950E944B19CF93DF931F92CDB70A
:102D8000DEB76983DC01ED91FC910280F381E02DD7
:102D900041E050E0BE016F5F7F4F09950F90DF91DA
:102DA000CF910895CF93DF93EC018C859D8597FF9C
:102DB00005C082E00E944F139D878C878C859D857E
:102DC000DF91CF91089583E00C94E315FC01848595
:102DD000958597FD06C082E00E94F71290E001966B
:102DE000089582E00E94F71290E00895FC01848526
:102DF000958597FD05C02FEF3FEF35872487089510
:102E000082E00C944F13CF93DF93EC0180911C016F
:102E1000882331F083E00E9480131816190634F0DD
:102E200081E090E09B838A8380E090E0DF91CF9106
:102E30000895FC0120812E5F208342E450E06BE581
:102E40007AE080E80C941B14FC0121818081813A96
:102E500059F4213209F04BC047E050E065E171E0E0
:102E600080E00E941B145EC0813209F040C0233212
:102E700089F4838190E0982F88273281832BA0E00A
:102E8000B0E08093110190931201A0931301B093CD
:102E900014010FC0203239F467E070E085E191E061
:102EA0000E944C1409C0223221F4828180931C01BB
:102EB00003C02D7F2032B1F58091DF06811103C060
:102EC000E0E0F8E002C0EEEFFAE0809115019091A9
:102ED0001601A0911701B0911801803B9440A10503
:102EE000B10511F580911C0180FF03C01DC080E079
:102EF0000895EE3F2AE0F20731F0808191819093AE
:102F0000FF0A8093FE0A87E797E7918380832BE08F
:102F100088E190E00FB6F894A895809360000FBE0A
:102F20002093600081E0089588E10FB6F8948093C3
:102F30006000109260000FBEA895EE3F8AE0F8078F
:102F400039F08091FE0A9091FF0A91838083EACF45
:102F50001092FF0A1092FE0AE5CF1092920610928C
:102F6000910688EE93E0A0E0B0E080939306909302
:102F70009406A0939506B09396068AE192E090930A
:102F8000900680938F068FEF9FEF90939C0680931F
:102F90009B060895EF92FF920F931F93CF93DF93B9
:102FA0007B01FC01C281D38100E010E0209781F019
:102FB000E881F9810280F381E02DB701CE01099506
:102FC00097FD08C0080F191F0884D985C02DEECFC2
:102FD000C80102C08FEF9FEFDF91CF911F910F913A
:102FE000FF90EF9008950F931F93CF93DF938B0182
:102FF000FC01C281D381209771F0E881F9810480BE
:10300000F581E02DB801CE010995009731F40884CF
:10301000D985C02DF0CF80E090E0DF91CF911F9156
:103020000F9108950F931F93CF93DF938B01FC01B2
:10303000C281D381209771F0E881F9810680F78100
:10304000E02DB801CE010995080F111D0884D9851E
:10305000C02DF0CFF8011082DF91CF911F910F9119
:1030600008950F931F93CF93DF938B01FC01C281CF
:10307000D381209771F0E881F9810190F081E02DF2
:10308000B801CE010995811106C00884D985C02DEB
:10309000F0CF80E001C081E0DF91CF911F910F91CF
:1030A00008958091E40681110DC082E08093E006CE
:1030B00084E08093E1061092E3061092E20681E03C
:1030C0008093E40680EE96E00895AA1BBB1B51E1B5
:1030D00007C0AA1FBB1FA617B70710F0A61BB70B88
:1030E000881F991F5A95A9F780959095BC01CD012D
:1030F000089597FB072E16F4009407D077FD09D0AA
:103100000E94651807FC05D03EF4909581959F4F6D
:103110000895709561957F4F0895A1E21A2EAA1B1C
:10312000BB1BFD010DC0AA1FBB1FEE1FFF1FA21777
:10313000B307E407F50720F0A21BB30BE40BF50B74
:10314000661F771F881F991F1A9469F760957095FD
:10315000809590959B01AC01BD01CF010895052E8E
:1031600097FB1EF400940E94C61857FD07D00E94DA
:103170008D1807FC03D04EF40C94C618509540955A
:10318000309521953F4F4F4F5F4F08959095809513
:10319000709561957F4F8F4F9F4F0895EE0FFF1FE2
:1031A0000590F491E02D09940E94DF18A59F900DE1
:1031B000B49F900DA49F800D911D11240895A29F8E
:1031C000B001B39FC001A39F700D811D1124911DFB
:1031D000B29F700D811D1124911D08958F929F92B1
:1031E000AF92BF92CF92DF92EF92FF92CF93DF9395
:1031F000EC01688179818A819B8161157105810566
:10320000910521F464E279ED8BE597E02DE133EF50
:1032100041E050E00E94AF1849015A019B01AC0106
:10322000A7EAB1E40E94D4186B017C01ACEEB4EFC4
:10323000A50194010E946919C60ED71EE81EF91E49
:10324000F7FE06C081E0C81AD108E10880E8F80A54
:10325000C882D982EA82FB82C701B6019F77DF91DB
:10326000CF91FF90EF90DF90CF90BF90AF909F9065
:103270008F9008950E94EE18089580E091E00E94DA
:10328000EE1808956093000170930101809302018C
:1032900090930301089581E090E0F8940C946E19E6
:1032A000F999FECF92BD81BDF89A992780B508950E
:1032B000262FF999FECF1FBA92BD81BD20BD0FB652
:1032C000F894FA9AF99A0FBE01960895B7FF0C94F4
:1032D000D4180E94D418821B930B0895F894FFCF42
:1032E0000100000003000200010000C18081000015
:1032F00000FFFFFFFF00E1000000000000417264DA
:1033000075626F790053617973005368616C6C204A
:10331000576520506C617920412047616D653F0001
:10332000507265737320412026204220746F204222
:103330006567696E006320526F646E6579204E6F19
:1033400072746F6E203230313700526F756E643A8E
:1033500020004C697665733A200053636F72653ABA
:103360002000526573657474696E67004765742048
:1033700052656164792100474F20210047616D65E6
:10338000204F76657200596F75204C6F7365005041
:10339000726573732041202B204220746F20426598
:1033A00067696E0057656C6C20446F6E6500596FDD
:1033B000752062656174207468652067616D6500C1
:1033C000507265737320412026204220746F206262
:1033D0006567696E0000000000DB0D40110D0A00FA
:1033E0006E616E00696E66006F7666002E000000EA
:1033F0000000BA16401100000000BC160317E616C4
:06340000F616D216E316D9
:00000001FF
